:020000040800F2
:1000000038080020D5010008650800087F070008AF
:1000100083070008F504000823140008000000000E
:10002000000000000000000000000000F90A0008C5
:100030004D06000800000000A1090008DD0C0008C2
:10004000EF010008EF010008EF010008EF010008D0
:10005000EF010008EF010008EF010008EF010008C0
:10006000EF010008EF010008EF010008EF010008B0
:10007000EF010008EF010008EF010008EF010008A0
:10008000EF010008EF010008EF010008EF01000890
:10009000EF010008EF010008EF010008EF01000880
:1000A000EF010008EF010008EF010008EF01000870
:1000B000EF010008EF010008410D0008EF01000802
:1000C000EF010008EF010008EF010008EF01000850
:1000D000EF01000879110008EF0100080112000883
:1000E000EF010008EF010008EF010008EF01000830
:1000F000EF010008EF010008EF010008EF01000820
:10010000EF010008EF010008EF010008EF0100080F
:10011000EF010008EF010008EF010008EF010008FF
:10012000EF010008EF010008EF010008EF010008EF
:1001300000F002F800F03FF80AA090E8000C8244BA
:100140008344AAF10107DA4501D100F034F8AFF297
:10015000090EBAE80F0013F0010F18BFFB1A43F0A5
:1001600001031847601E0000801E0000103A24BFE3
:1001700078C878C1FAD8520724BF30C830C144BF0C
:1001800004680C607047000000230024002500264E
:10019000103A28BF78C1FBD8520728BF30C148BFEA
:1001A0000B607047732900F01981002070471FB55C
:1001B0001FBD10B510BD00F06BF91146FFF7F7FF3A
:1001C00001F0B0F900F089F903B4FFF7F2FF03BCC6
:1001D00001F029F90948804709480047FEE7FEE792
:1001E000FEE7FEE7FEE7FEE7FEE7FEE7FEE7FEE7E7
:1001F00004480549054A064B70470000E10C000819
:10020000310100083802002038080020380400209E
:1002100038040020704700000FB4044910B503AA49
:10022000029800F0DFF810BC5DF814FB1800002005
:100230002DE9F0410E460446002020622046E16888
:10024000884730B3252805D0D4E901219047206A9A
:10025000401CF2E7E168204600278847050018D0D7
:10026000A5F14100192802D820354FF40067324625
:10027000294620462760FFF795FF40B1012804D0AA
:10028000F61D26F007060836D8E7361DD6E72846BD
:10029000DAE7206ABDE8F08170B50C460546012A10
:1002A00005D02878800600D5EA69002302E0012302
:1002B00005E05B1C934202D2E05C0028F9D1A869FA
:1002C000E618C01AA861286A184428622846AFF3C5
:1002D000008004E0D5E9012114F8010B9047B442F5
:1002E000F8D32846AFF3008070BD4FF00002042918
:1002F000C0F0128010F0030C00F08880CCF1040CE8
:10030000BCF1020F18BF00F8012BA8BF20F8022B88
:10031000A1EB0C0100F07AB85FEAC17C24BF00F8C1
:10032000012B00F8012B48BF00F8012B704700009B
:100330004FF0013C50F8042B51F8043B9A4221D174
:10034000A2EB0C03934313EACC1317D150F8042B00
:1003500051F8043B9A4215D1A2EB0C03934313EAE4
:10036000CC130BD150F8042B51F8043B9A4209D11D
:10037000A2EB0C03934313EACC13DBD04FF0000045
:10038000704700BFD01A01BAB1FA81F101F018012B
:1003900022FA01F0CB40C1F12001DBB2C0B2C01A99
:1003A0002CFA01F3D11A914311EAC311E6D1704737
:1003B000704770477047704710B5436913B1AFF38A
:1003C000008001E0FFF768FF012010BD127800F106
:1003D00024010A7000224A700122EDE711684FF0F3
:1003E000FF32E9E7074B70B50D467B4400F039F862
:1003F0000446284600F048F810B14FF0FF3070BDB9
:10040000204670BD1B1100004FF0000200B51346DE
:1004100094469646203922BFA0E80C50A0E80C5024
:10042000B1F12001BFF4F7AF090728BFA0E80C50D5
:1004300048BF0CC05DF804EB890028BF40F8042BCE
:1004400008BF704748BF20F8022B11F0804F18BF3B
:1004500000F8012B7047000001694A1C026108780E
:10046000704700B58FB0CDE90131002105910549F4
:100470007944CDE9031011466846FFF7D9FE0FB065
:1004800000BD0000E5FFFFFF007B00F0800070472B
:10049000754600F02BF8AE4605006946534620F03D
:1004A0000700854618B020B5FFF7A2FEBDE8204042
:1004B0004FF000064FF000074FF000084FF0000B20
:1004C00021F00701AC46ACE8C009ACE8C009ACE8D3
:1004D000C009ACE8C0098D46704710B50446AFF3BB
:1004E00000802046BDE81040FFF76EBE0048704710
:1004F000D801002000BFFEE71FB50121082000F051
:1005000071FA0121042000F04DFA03208DF80E004D
:1005100010208DF80F000120ADF80C0003A916483B
:1005200000F095F804208DF80F000220ADF80C00C3
:1005300003A9114800F08BF8104800F025FC40F2A8
:10054000E730ADF804004720ADF800000020ADF81A
:100550000600ADF802006946084800F0BBFD012224
:100560001146064800F018FD00F07DF9002103480F
:1005700000F0FDFB1FBD0000000C01400008004022
:1005800010B5022000F000F94FF42F7000F01CF9B4
:10059000022000F021F94FF42F7000F03DF910BD5A
:1005A00010B5012000F0F0F8C82000F00DF901208E
:1005B00000F012F9C82000F02FF910BD10B501208D
:1005C00000F0E2F84FF4FA7000F0FEF8012000F0BD
:1005D00003F94FF42F7000F01FF910BD10B5012082
:1005E00000F0D2F84FF42F7000F0EEF8012000F088
:1005F000F3F84FF4FA7000F00FF910BD10B50020B9
:1006000000F0E2F8002000F007F910BD10B502205C
:1006100000F0BAF84FF42F7000F0D6F8012000F087
:10062000DBF84FF42F7000F0F7F810BD10B5012083
:1006300000F0AAF84FF42F7000F0C6F8022000F086
:10064000CBF84FF42F7000F0E7F810BD70472DE99C
:10065000F041024600250026002000230024002748
:1006600091F803C00CF00F0591F803C00CF0100CCA
:10067000BCF1000F03D091F802C04CEA050591F8D7
:1006800000C0BCF1000F31D0146800202BE04FF007
:10069000010C0CFA00F3B1F800C00CEA03069E420C
:1006A00020D183004FF00F0C0CFA03F7BC4305FA7E
:1006B00003FC4CEA040491F803C0BCF1280F06D1F6
:1006C0004FF0010C0CFA00FCC2F814C00AE091F8DB
:1006D00003C0BCF1480F05D14FF0010C0CFA00FC2F
:1006E000C2F810C0401C0828D1D31460B1F800C073
:1006F000BCF1FF0F34DD546800202EE000F1080C3F
:100700004FF0010808FA0CF3B1F800C00CEA030638
:100710009E4221D183004FF00F0C0CFA03F7BC432B
:1007200005FA03FC4CEA040491F803C0BCF1280F5D
:1007300005D100F1080C08FA0CF8C2F8148091F801
:1007400003C0BCF1480F07D100F1080C4FF00108BD
:1007500008FA0CF8C2F81080401C0828CED3546068
:10076000BDE8F0810246002093680B400BB10120E8
:1007700000E000207047416170470161704700BF91
:10078000FEE700BFFEE7000010B50446012C08D1CB
:10079000C1030C48FFF7F1FFA1030A48FFF7EBFF85
:1007A0000FE0022C08D161030648FFF7E6FFA10322
:1007B0000448FFF7E0FF04E04FF440410148FFF731
:1007C000DAFF10BD000C014010B5044621464FF081
:1007D000804000F079FC10BD10B50446012C08D112
:1007E00001030C48FFF7C9FF61030A48FFF7C3FF85
:1007F0000FE0022C08D121030648FFF7BEFFE102FB
:100800000448FFF7B8FF04E04FF440510148FFF7F8
:10081000B2FF10BD000C014010B5044621464FF058
:10082000804000F053FC10BD08B50121082000F005
:10083000D9F84FF44040ADF8000003208DF80200D5
:1008400010208DF8030069460548FFF700FF4FF4BC
:100850004050ADF8000069460148FFF7F8FE08BDBA
:10086000000C0140704708B54FF4A06000F048F854
:1008700000208DF801008DF802001E208DF8000088
:1008800001208DF80300684600F002F808BD000062
:1008900070B5002100230F22C47804B3154C2468DE
:1008A00004F4E064C4F5E064210AC1F10403CA4021
:1008B000447804FA03F184781440214309010E4C72
:1008C0000678A155047804F01F050124AC40057892
:1008D0006D11AD0005F1E025C5F8004109E004788F
:1008E00004F01F050124AC40044D0678761145F84C
:1008F000264070BD0CED00E000E400E080E100E087
:1009000002490143024A1160704700000000FA05E5
:100910000CED00E000B589B00121042000F062F880
:100920000121084600F03EF80C20ADF80400032039
:100930008DF8060018208DF8070001A91748FFF769
:1009400086FE40F2E730ADF81C004720ADF81800F5
:100950000020ADF81E00ADF81A0006A94FF0804047
:1009600000F0B8FB6020ADF808000120ADF80A00E7
:100970000020ADF80E00ADF8100002A94FF0804045
:1009800000F014FB02A94FF0804000F05FFB012152
:10099000880700F0ECF909B000BD00000008014034
:1009A0007047000029B1064AD2690243044BDA615C
:1009B00004E0034AD2698243014BDA6170470000C8
:1009C0000010024029B1064A12690243044B1A6121
:1009D00004E0034A12698243014B1A617047000028
:1009E0000010024029B1064A92690243044B9A6101
:1009F00004E0034A92698243014B9A617047000008
:100A00000010024029B1064AD2680243044BDA6062
:100A100004E0034AD2688243014BDA607047000069
:100A20000010024030B500210022002400232D4D8B
:100A30006D6805F00C0121B1042905D0082923D1E6
:100A400005E0294D056022E0274D05601FE0254D9A
:100A50006D6805F47012234D6D6805F4803402252D
:100A600005EB92421CB9214D554305600BE01D4D2D
:100A70006D6805F400351DB11C4D5543056002E05D
:100A8000194D5543056002E0174D056000BF00BFDA
:100A9000144D6D6805F0F0010909154D6B5C056892
:100AA000DD4045600F4D6D6805F4E061090A104DA9
:100AB0006B5C4568DD4085600A4D6D6805F46051EA
:100AC000C90A0B4D6B5C4568DD40C560054D6D681E
:100AD00005F44041890B074D6B5CC568B5FBF3F528
:100AE000056130BD0010024000127A0000093D008F
:100AF0000000002010000020704700002DE9F05F8A
:100B00000024A146A34652E046E00120284908609F
:100B1000142000F0D3FC00202649C1F8800100BF5A
:100B200002212548FFF71EFE0028F9D001212348A5
:100B300000F01DF90BF1010B00BF02211E48FFF769
:100B400011FE0128F9D000211C4800F010F91B48C3
:100B500000F00EFA82461A49096801EB4102C2EB25
:100B6000C1110AEBC10000F0C5FF07460022154B7A
:100B700000F068FE054600F033FE04464946204674
:100B800001F020F8814600200C49243108800C49EE
:100B900008600A2000F06CFCBBF1050FB5D10A49D2
:100BA000484601F071F804462046BDE8F09FABE7E7
:100BB0008081214200802142000C01400008004059
:100BC0003C00002000004D400000A04010B500F0A7
:100BD00001F810BD0CB5002001900090334800686A
:100BE00040F480303149086000BF3048006800F4AC
:100BF000003000900198401C0190009818B90198AD
:100C0000B0F5A06FF1D12948006800F4003010B1B0
:100C10000120009001E0002000900098012843D1BD
:100C20002348006840F01000214908600846006829
:100C300020F0030008600846006840F002000860E9
:100C40001A484068194948600846406848600846A4
:100C5000406840F4806048600846406820F47C109A
:100C600048600846406840F4E8104860084600685C
:100C700040F08070086000BF0C48006800F0007011
:100C80000028F9D00948406820F00300074948606F
:100C90000846406840F00200486000BF03484068D2
:100CA00000F00C000828F9D10CBD00000010024033
:100CB00000200240042808D14FF0E021096941F0EA
:100CC00004014FF0E022116107E04FF0E0210969D3
:100CD00021F004014FF0E0221161704770470000DD
:100CE00010B51348006840F001001149086008463B
:100CF0004068104908400E494860084600680E499F
:100D000008400B4908600846006820F4802008600D
:100D10000846406820F4FE0048604FF41F008860D9
:100D2000FFF754FF4FF000600449086010BD000059
:100D3000001002400000FFF8FFFFF6FE08ED00E0A3
:100D400010B50121064800F016F940B10121044810
:100D500000F00AF803480068401C0249086010BD12
:100D6000000800403C000020CA430282704721B1C5
:100D7000028842F00102028004E002884FF6FE730E
:100D80001A4002807047000010B50446684884424B
:100D900008D10121C014FFF735FE0021E014FFF750
:100DA00031FEC4E0B4F1804F08D101210846FFF7BD
:100DB00009FE00210120FFF705FEB8E05D488442EE
:100DC00008D101210220FFF7FDFD00210220FFF7DD
:100DD000F9FDACE05848844208D101210420FFF716
:100DE000F1FD00210420FFF7EDFDA0E0534884420F
:100DF00008D101210820FFF7E5FD00210820FFF7B9
:100E0000E1FD94E04E48844208D101211020FFF713
:100E1000D9FD00211020FFF7D5FD88E04948844224
:100E200008D101212020FFF7CDFD00212020FFF770
:100E3000C9FD7CE04448844208D101214014FFF7F9
:100E4000E1FD00216014FFF7DDFD70E03F488442C2
:100E500009D10121C804FFF7D5FD00214FF400207E
:100E6000FFF7D0FD63E03A48844209D1012108052B
:100E7000FFF7C8FD00214FF48010FFF7C3FD56E0D7
:100E80003448844209D101214805FFF7BBFD002108
:100E90004FF40010FFF7B6FD49E02F48844208D117
:100EA00001214020FFF78EFD00214020FFF78AFD41
:100EB0003DE02A48844208D101218020FFF782FDCD
:100EC00000218020FFF77EFD31E02548844208D1D3
:100ED00001218015FFF776FD0021A015FFF772FDB7
:100EE00025E02048844209D101210804FFF78AFD4A
:100EF00000214FF48030FFF785FD18E01A48844246
:100F000009D101214804FFF77DFD00214FF4003095
:100F1000FFF778FD0BE01548844208D101218804D1
:100F2000FFF770FD00214FF48020FFF76BFD10BD2F
:100F3000002C01400004004000080040000C00406C
:100F4000001000400014004000340140004C0140FB
:100F5000005001400054014000180040001C0040B7
:100F60000020004000400140004401400048014092
:100F70000146888C704730B50246002000230024CB
:100F8000158A05EA0103958905EA010413B10CB13C
:100F9000012000E0002030BD1AB183890B4383811A
:100FA00002E083898B4383817047000070B5002481
:100FB00000220023058C4FF6FF6635400584028C25
:100FC0008388848B4FF68F752C404FF6FC752C4030
:100FD0000D882C434FF6FF552A400D894FF6FF76BA
:100FE00006EA05252A434D8806EA05252A43154DBC
:100FF000A84202D0144DA8421DD14FF2FF752A40DD
:101000004D894FF6FF7606EA05252A434FF6FF3550
:101010002A408D8806EA05252A434EF6FF752B40A7
:101020004DF6FF752B408D8906EA05152B43CD89BA
:1010300006EA05152B4383808483CD888587028447
:1010400070BD0000002C01400034014070B500224A
:1010500000230024058C4EF6FF7635400584038C72
:101060008488828B48F6FF752A404FF6FF452A4058
:101070000D884FF6FF7606EA05252A434DF6FF75E3
:101080002B400D8906EA05352B434D8806EA0535C8
:101090002B430B4DA84202D00A4DA84208D14BF673
:1010A000FF752C408D894FF6FF7606EA85152C4397
:1010B00084808283CD88A0F84050038470BD0000F6
:1010C000002C01400034014081877047A0F8401097
:1010D00070470000002202881D4B98420ED01D4B25
:1010E00098420BD0B0F1804F08D01B4B984205D0EE
:1010F0001A4B984202D01A4B984204D14FF68F7384
:101100001A404B881A43174B984207D0164B984207
:1011100004D04FF6FF431A40CB881A4302808B88D5
:1011200083850B8803850A4B98420BD0094B984264
:1011300008D00E4B984205D00D4B984202D00D4B73
:10114000984201D10B7A0386012383827047000005
:10115000002C014000340140000400400008004021
:10116000000C00400010004000140040004001400E
:10117000004401400048014010B540F225511D488F
:1011800000F08EF810B31B4800F046F9C4B21A48BC
:10119000008800F40040C8B91748008800F4804077
:1011A00060B10A2C03D000201349088020E01248C7
:1011B000008840F400401049088019E00D2C06D149
:1011C0000D48008840F480400B49088010E00A4830
:1011D0000088C0F30D0009490C5407480088401CE2
:1011E0000549088008460088C72801DD00200880DE
:1011F00010BD0000003801401C0000204800002005
:1012000010B540F225511D4800F04AF810B31B48B4
:1012100000F002F9C4B21A48008800F40040C8B9CE
:101220001748008800F4804060B10A2C03D00020E9
:101230001349088020E01248008840F4004010491B
:10124000088019E00D2C06D10D48008840F480403C
:101250000B49088010E00A480088C0F30D000949D6
:101260000C5407480088401C05490880084600883F
:10127000C72801DD0020088010BD000000480040A4
:10128000400000201001002021B1828942F4005268
:10129000828104E082894DF6FF731A408281704793
:1012A00070B50246002400230025002040F66A168F
:1012B000B14200D100BFC1F3421501F01F03012666
:1012C00006FA03F3012D02D19689334006E0022D80
:1012D00002D1168A334001E0968A33400C1201266F
:1012E00006FA04F41688344013B10CB1012000E072
:1012F000002070BDF0B50346002400260025002024
:1013000040F66A17B94200D100BF1846C1F3421433
:1013100001F01F06012707FA06F5012C01D10C3058
:1013200004E0022C01D1103000E014301AB107683B
:101330002F43076002E00768AF430760F0BD00007D
:101340002DE9F04786B005460E460024A24600BFB0
:10135000A1460027B08900B100BF2F462C8A4CF669
:10136000FF700440F08804432C82AC894EF6F310E1
:101370000440B08831890843718908430443AC8133
:10138000AC8A4FF6FF400440B0890443AC8201A808
:10139000FFF748FB1F48874202D1DDF810A001E0AB
:1013A000DDF80CA0A88900F4004040B10AEBCA00A7
:1013B00000EB0A1031684900B0FBF1F807E00AEBD6
:1013C000CA0000EB0A1031688900B0FBF1F8642014
:1013D000B8FBF0F004012009642101FB1089A88901
:1013E00000F4004040B1322000EBC900B0FBF1F046
:1013F00000F00700044308E0322000EB09106421EC
:10140000B0FBF1F000F00F0004432C8106B0BDE802
:10141000F08700000038014001468888C0F30800CA
:10142000704700BFFEE700BF7047000010B56FF0C7
:101430000400FFF73FFC0A4800680A49B0FBF1F0DE
:10144000094908700846007800EB4001C1EBC01064
:101450004FF6FF7101EAC0000449088010BD00008A
:101460002800002000127A0014000020160000203E
:101470000146114A12884A434FF0E0235A61002284
:101480009A611A46126942F001021A6100BF4FF0D8
:10149000E022106900F001021AB100F48032002A43
:1014A000F5D04FF0E022126922F001024FF0E02364
:1014B0001A6100229A617047160000200146114A05
:1014C00012784A434FF0E0235A6100229A611A468B
:1014D000126942F001021A6100BF4FF0E022106968
:1014E00000F001021AB100F48032002AF5D04FF06A
:1014F000E022126922F001024FF0E0231A6100227B
:101500009A6170471400002000BF054A128802F05B
:101510004002002AF9D0C2B2014B1B1D1A8070474D
:1015200000480040FFF782FF4FF4A060FFF7E8F9A2
:101530004FF4165000F004F9FEF7DEFF00F0ACF8AF
:10154000FFF791F9FFF770F9FFF7E4F916E0FFF7FD
:10155000D5FA044600F05AFC094908604FF47A7045
:10156000FFF786FF07480849086000F011F8C82116
:101570000448FEF7BAFE002004490880E7E70000AF
:101580002000002010010020440000204000002026
:1015900010B531A131480068FEF7CAFE38B9FEF730
:1015A000FFFF2E4801682EA0FEF736FE52E034A160
:1015B0002A480068FEF7BCFE38B9FEF7E1FF27486D
:1015C000016827A0FEF728FE44E02EA1234800680A
:1015D000FEF7AEFE38B9FFF711F82048016820A0E9
:1015E000FEF71AFE36E028A11C480068FEF7A0FEB0
:1015F00038B9FFF70BF81948016819A0FEF70CFE7F
:1016000028E022A115480068FEF792FE38B9FEF7DF
:10161000D5FF1248016812A0FEF7FEFD1AE01CA1DA
:101620000E480068FEF784FE38B9FEF7FFFF0B484E
:1016300001680BA0FEF7F0FD0CE016A1074800685A
:10164000FEF776FE30B9FEF7C9FF0448016804A032
:10165000FEF7E2FD10BD0000310000004400002054
:10166000E68EA5E694B6E588B0E79A84E695B0E6FE
:101670008DAEE4B8BAEFBC9A25730D0A00000000E5
:10168000320000003300000034000000350000008C
:10169000360000003700000000B587B001210820A7
:1016A000FFF7A0F901218804FFF77CF94FF480606F
:1016B000ADF8180003208DF81A0018208DF81B00D3
:1016C00006A91D48FEF7C3FF4FF40060ADF81800EF
:1016D00004208DF81B0006A91748FEF7B8FF272045
:1016E0008DF8040003208DF805008DF80600012018
:1016F0008DF8070001A8FFF7CBF84FF416500290C1
:101700000020ADF80C00ADF80E00ADF81000ADF8FB
:1017100014000C20ADF8120002A90848FFF710FED3
:10172000012240F225510548FFF7E4FD012103485D
:10173000FFF7AAFD07B000BD000C014000480040C3
:1017400010B586B00446012144F20400FFF74AF9BF
:101750004FF40070ADF8140003208DF81600182027
:101760008DF8170005A91C48FEF771FF4FF4806043
:10177000ADF8140004208DF8170005A91648FEF7EF
:1017800066FF25208DF8000003208DF801008DF8FC
:10179000020001208DF803006846FFF779F80194F4
:1017A0000020ADF80800ADF80A00ADF80C00ADF867
:1017B00010000C20ADF80E0001A90848FFF7C0FD8D
:1017C000012240F225510548FFF794FD012103480D
:1017D000FFF75AFD06B010BD000801400038014077
:1017E00021F00042A2F16052B2F5801F01F00043E7
:1017F00028BFD2F17F6C0BD95FEA001C43EAC2021A
:1018000042EB507018BF704728BF20F001007047AE
:10181000B2F5801FBCBF184670474FEA410C1CF55B
:10182000001F02D2084600F052BB70B500F075F9F7
:1018300000000089FFF7F6BF4FF00040A0F58000E0
:10184000704700002DE9C04130B4DFF8A0C23CEA87
:10185000111418BF3CEA131400F0EC8081EA030570
:101860001CEA111444EAD57418BF1CEA131500F0E1
:10187000C780A4EB05044FF0004545EAC12145EAC5
:10188000C32341EA505143EA525304F17F74994211
:1018900004F500344FEAC0204FEAC22208BF90424C
:1018A00000F09C804FEA13650FF24016765D4FEA18
:1018B000134506FB05F7C7F1807706FB07F74FEAEC
:1018C000D737A7FB03687642C8F58038A7FB06CE5A
:1018D00038BFA8F1010807FB08E64FF0000EA6FB91
:1018E000028CE6FB03CEDCF1000CCEF1004E38BFDB
:1018F000AEF1010EA6FB0C584FF000074FF00005AB
:10190000E6FB0E87A1FB08C6A0FB07CE16EB0E0672
:1019100045F10005E1FB076515F1E04E7EBFA4F53A
:1019200080345FEA46066D4116F1800745F10005F7
:101930004FEA17274FEA066647EA0567A6F1DE4633
:10194000B6F1805F4FEA15251FD9384624F0010C07
:1019500005EBC471BCF1FE6F01EB0C1102D8F0BCB9
:10196000BDE8008124425CBF01F5801E9EEAC47F71
:1019700002D4F0BCBDE80081244238D4F0BCA1F10F
:10198000C041BDE8004100F016B94FEAD22242EA58
:1019900043524FEAD323A7FB02864FEAD02040EA06
:1019A000415007FB03661EEA0E0F4FEAD12105FBEB
:1019B000026658BFA6EB0056B6EB00564FEA520E31
:1019C0004EEAC37E18EB0E0E56EB530EBDD518EB48
:1019D00002085E417F1C55F10005B6E74FF4801503
:1019E0004FF000074FF000064FF00008ADE7F0BCE5
:1019F0004FF0000001F1C04101F00041BDE800815D
:101A000011EA0C1F0CEA131500D00CE013EA0C1FAE
:101A100000F025804FF00000F0BC81EA030101F0E6
:101A20000041BDE80081F0BCBDE8004181EA03014E
:101A300000F0C1B8F0BCBDE8004170B500F06DF831
:101A4000097EFC3E00F007B881EA03014FF0000078
:101A500001F00041704781EA030100F0ACB8F0BC2E
:101A6000BDE800414FF0000021497047FFFDFBF940
:101A7000F7F5F4F2F0EEEDEBE9E8E6E4E3E1E0DEC1
:101A8000DDDBDAD8D7D5D4D3D1D0CFCDCCCBCAC833
:101A9000C7C6C5C4C2C1C0BFBEBDBCBBBAB9B8B75A
:101AA000B6B5B4B3B2B1B0AFAEADACABAAA9A8A84D
:101AB000A7A6A5A4A3A3A2A1A09F9F9E9D9C9C9B1B
:101AC0009A999998979796959594939392919190C6
:101AD0008F8F8E8E8D8C8C8B8B8A89898888878757
:101AE0008685858484838382828181800000FF07CC
:101AF0000000F87FB0FA80F310FA03F10AD0C3F1C6
:101B00001D0303F580634FEA41504FEA035202EB95
:101B1000D12170474FF0000070470EF1020E2EF0F9
:101B2000030E5EF8046B364205D4012A43EB03052D
:101B300015F5001F12D8012841EB010C1CF5001F00
:101B40000CD80ED14FEAD17C15F5001F0CEB4C0CD4
:101B50000CF1020C08BF4CEBD37C04E04FF0080CF6
:101B600001E04FEAD37C0CEB4C0526FA05F606F0B3
:101B70000706B6F1040C06D20EEB860CBDE87040E9
:101B80004CF0010C6047DFE80CF0090B02024FF04B
:101B900000414FF00000A1F5002170BD194610462C
:101BA000012851EB010418BFD4F5001484BF0020B4
:101BB00001F0004170BD0808A0F500114FEA3101A5
:101BC0007047000090EA010F48BF81F0004100F12A
:101BD0008A81421A3CBF801A89184FEAD0524FF0CE
:101BE0007F4C1CEA410FA2EBD15318BF9CEA026F55
:101BF00000F03B804FF0004C4CEA00204CEA012101
:101C000021FA03FC10EB0C0C1ED202F1FF325FEA4A
:101C10001C2040EBC25038BF70471CF07F0F4FEACA
:101C2000400C18BFBCF17F4F38BF7047C3F1200391
:101C3000994008BF20F00100BCF17F4F38BF7047CA
:101C4000A0F1C04000F043B94FEA3C00000A40EB6D
:101C5000C25028BF1CF0FF0F4FEA400CE6D018BF5F
:101C6000BCF17F4F38BF7047EAE79CEA026F05D0AE
:101C700010EA5C0F08BF00F00040704710B500F09C
:101C8000E0F800BF64FBBE3E4FF47F0C1CEAD012AC
:101C90001EBF1CEAD11392EA0C0F93EA0C0F00F05E
:101CA000858090EA010F48BF42F4807240F4000C36
:101CB00041F400002CF07F4120F07F4000B58142CC
:101CC000A2EB03020FF2081CACEB504EC0F1000077
:101CD0009EF800E04FEA4E0E00FB0EFC38BF4900B4
:101CE0004FEA2C1C02F5FA020CFB0EF34FEACE1E53
:101CF0004FEA112C4FEAC1210EEB635E42EB224208
:101D00000EFB0CFC4FEA1C5300FB03114FEA112C95
:101D10004FEA01310EFB0CFC4FEADC4C00FB0C11CE
:101D2000C14228BF09184CEB03335DF804EB10EBFC
:101D3000410143EBC250B2F57C0F38BF704729D543
:101D400012F0F00F1CBF00F1C04000F000407047DF
:101D5000008182838485868788898B8C8D8E8F9184
:101D60009293959697999A9C9D9FA0A2A3A5A7A8A8
:101D7000AAACAEB0B2B3B5B7B9BCBEC0C2C5C7C9D4
:101D8000CCCED1D4D7D9DCDFE2E6E9ECF0F3F7FA38
:101D9000FE0000004FEA400C0CF1807CBCF17E4F4D
:101DA00028BF7047B0F1C04000F091B890EA010F31
:101DB0000CEAD11348BF42F48072624538BF6345D4
:101DC00007D213F47F0F16D080EA010000F0004024
:101DD000704710B500F035F8097EFC3E00F005B8FC
:101DE00080EA010000F00040704780EA010000F046
:101DF000004000F06CB812F47F0F04BF0248704737
:101E000080EA010000F063B80000C07F41000B0EC3
:101E1000D3F19E0208D950F400034FEA032323FABA
:101E200002F048BF4042704710B500F00AF800BF0A
:101E300049922480002070476FF0004282EA20001F
:101E400070470EF1020E2EF0030E5EF8044B244292
:101E500004D44FEA4102B2F17F4F11D84FEA400358
:101E6000B3F17F4F0CD80ED14FEAD07CB2F17F4F47
:101E70000CEB4C0C0CF1020C08BF4CEBD17C04E0D9
:101E80004FF0080C01E04FEAD17C0CEB4C0324FA34
:101E900003F404F00704B4F1040C06D20EEB840C36
:101EA000BDE810404CF0010C6047DFE80CF007087B
:101EB00002024FF00040A0F5800010BD084642002D
:101EC00018BFD2F1807288BF00F0004010BDFF2122
:101ED00041EAD050C005704790EA010F48BF81F039
:101EE00000413FF576AE421A04D882F00042A0EBE2
:101EF000020011444FEAD0524FF07F4C1CEA410FD0
:101F0000A2EBD15318BF9CEA026F4AD04FF0004CAD
:101F10004CEA00204CEA012121FA03FCB0EB0C0C46
:101F20000FD412F0FE0F36D05FEA4C001DD5001220
:101F300040EBC25038BF70471CF03F0F18BF7047CE
:101F40000BE0A2F101025FEA1C2040EBC25038BF57
:101F500070471CF07F0F18BF7047C3F120039940F2
:101F600014BF401E20F00100704780084FEA122382
:101F700008BF7047B0FA80FCA2EB0C02CCF1280C31
:101F800060FA0CF093EA122F04BF00EBC2507047C6
:101F90004FEAC3707047130A5FEADC1008BF70474E
:101FA000F6E79CEA026F04D010EA5C0F08BF00203D
:101FB000704710B5FFF745FF40DFF63E81F0004067
:101FC00070470000E41F00080000002048000000E7
:101FD0006C0100082C20000848000020F0070000D9
:101FE000880100080000000001020304010203044C
:101FF00006070809020406080000000000000000AF
:1020000000000000000000000000000000A24A04E0
:102010000000000000000000010203040607080998
:0C202000000000000000000000000000B4
:0400000508000131BD
:00000001FF
