:020000040800F2
:10000000900800208901000829070008E706000879
:10001000250700083902000821120008000000002E
:100020000000000000000000000000005909000866
:10003000AD03000800000000B10700086D0A0008C9
:10004000A3010008A3010008A3010008A301000800
:10005000A3010008A3010008A3010008B1030008E0
:10006000A3010008A3010008A3010008A3010008E0
:10007000A3010008A3010008A3010008A3010008D0
:10008000A3010008A3010008A3010008A3010008C0
:10009000A3010008A3010008A3010008A3010008B0
:1000A000A3010008A3010008A3010008A3010008A0
:1000B000A3010008A3010008A3010008A301000890
:1000C000A3010008A3010008A3010008A301000880
:1000D000A3010008410E0008A3010008D10E00088A
:1000E000A3010008A3010008A301000800F002F822
:1000F00000F03AF80AA090E8000C82448344AAF188
:100100000107DA4501D100F02FF8AFF2090EBAE885
:100110000F0013F0010F18BFFB1A43F0010318473B
:10012000681C0000881C0000103A24BF78C878C101
:10013000FAD8520724BF30C830C144BF04680C60ED
:10014000704700000023002400250026103A28BF35
:1001500078C1FBD8520728BF30C148BF0B60704739
:100160001FB51FBD10B510BD00F033F81146FFF7E5
:10017000F7FF01F02BF900F051F803B4FFF7F2FF9D
:1001800003BC01F04FF800000948804709480047C8
:10019000FEE7FEE7FEE7FEE7FEE7FEE7FEE7FEE737
:1001A000FEE7FEE704480549054A064B7047000094
:1001B000710A0008ED00000890020020900800205D
:1001C00090040020900400207047704770477047EB
:1001D0007047754600F02CF8AE4605006946534658
:1001E00020F00700854618B020B5FFF7DBFFBDE81B
:1001F00020404FF000064FF000074FF000084FF08E
:10020000000B21F00701AC46ACE8C009ACE8C0091E
:10021000ACE8C009ACE8C0098D46704710B504468B
:10022000AFF300802046BDE81040FFF7A6BF0000F6
:10023000004870472C02002000BFFEE770B5002484
:10024000002555480068072844D2DFE800F0040F75
:1002500026161E2D380000214FF0804000F07FFD53
:1002600000214FF0804000F07CFD38E04FF44870F2
:100270004A4908804A49088031E0002047490880FF
:100280004FF496704649088029E04FF49670434930
:10029000088000204249088021E04FF670603F4905
:1002A00008803F4908801AE000214FF0804000F0AC
:1002B00056FD4FF4C871880600F053FD0FE04FF46F
:1002C000C871880600F04BFD00214FF0804000F01F
:1002D00048FD04E00021084600F014FC00BF00BF08
:1002E0002E4800882F490988084400B22B4908800D
:1002F0002B4800882B490988084400B22849088007
:100300002648B0F9000000280EDA4FF400412648D4
:1003100000F0E7F94FF48041234800F0E0F91F486E
:100320000088404284B20CE04FF480411E4800F047
:10033000D8F94FF400411C4800F0D1F91748008863
:1003400084B21748B0F9000000280EDA4FF480514B
:10035000154800F0C6F94FF40051134800F0BFF9FA
:100360000F480088404285B20CE04FF400510E481F
:1003700000F0B7F94FF480510B4800F0B0F908488D
:10038000008885B22946204600F0BCFB00200349C6
:1003900008800349088070BD340000203800002028
:1003A0003A00002048000020000C01407047000087
:1003B00010B5022000F038F848B30021144800F0CE
:1003C000D3FC0121124800F015FC012011490860FE
:1003D00012E00F4800F01AFC142807DB00210C483B
:1003E00000F008FC00200B49086005E002210A48E3
:1003F00000F06CF907490860064800680028E8D159
:100400000021034800F0F6FB022000F007F810BDC1
:10041000002C014040000020000C01400149086010
:100420007047000014040140014600200022074BE1
:100430001B6803EA0102054B14331B680B4013B120
:100440000AB1012000E000207047000000040140D4
:10045000002123498279002A3AD00A4612680368AB
:100460009A430B461A600A1D126803689A430B1DD3
:100470001A60027911440A6803681A430A60184A2C
:100480000832126803689A43154B08331A601A1D24
:10049000126803689A43124B0C331A604279102A8F
:1004A0000ED11A1F126803681A430D4B08331A60E5
:1004B0001A1D126803681A43094B0C331A600DE0C9
:1004C0000749427911440A6803681A430A6005E043
:1004D000027911440A6803689A430A607047000071
:1004E0000004014030B500228B071C0F0F2303FAD4
:1004F00004F20B4B8C1053F824309343084C8D10AE
:1005000044F8253023468C1053F824308C07240FF0
:1005100000FA04F42343024C8D1044F8253030BD1A
:10052000080001402DE9F041024600250026002088
:1005300000230024002791F803C00CF00F0591F868
:1005400003C00CF0100CBCF1000F03D091F802C0F6
:100550004CEA050591F800C0BCF1000F31D01468D9
:1005600000202BE04FF0010C0CFA00F3B1F800C0B2
:100570000CEA03069E4220D183004FF00F0C0CFAC8
:1005800003F7BC4305FA03FC4CEA040491F803C0EA
:10059000BCF1280F06D14FF0010C0CFA00FCC2F898
:1005A00014C00AE091F803C0BCF1480F05D14FF028
:1005B000010C0CFA00FCC2F810C0401C0828D1D372
:1005C0001460B1F800C0BCF1FF0F34DD54680020A6
:1005D0002EE000F1080C4FF0010808FA0CF3B1F816
:1005E00000C00CEA03069E4221D183004FF00F0C9D
:1005F0000CFA03F7BC4305FA03FC4CEA040491F837
:1006000003C0BCF1280F05D100F1080C08FA0CF862
:10061000C2F8148091F803C0BCF1480F07D100F173
:10062000080C4FF0010808FA0CF8C2F81080401CC2
:100630000828CED35460BDE8F0810000F0B50A462A
:10064000002300240021002500F00046B6F1004FF1
:1006500002D11D4EF16901E01B4E7168C0F30345E4
:1006600083B200F44016B6F5401F08D121F0706146
:10067000154E766826F07066134F7E6012E000F427
:100680008016B6F5801F06D1032606FA05F4A143AD
:1006900041F0706106E0460D360103FA06F6B143FB
:1006A00041F0706122B1460D360103FA06F631437E
:1006B00000F00046B6F1004F02D1034EF16101E0B7
:1006C000014E7160F0BD00000000014002460020B4
:1006D00093680B400BB1012000E00020704741619E
:1006E00070470161704700BFFEE7000008B50121B7
:1006F000082000F0A7F84FF47040ADF8000010207B
:100700008DF8030003208DF8020069460448FFF7C6
:1007100009FF4FF470410248FFF7E1FF08BD0000F8
:10072000000C014000BFFEE77047000070B50021DB
:1007300000230F22C47804B3154C246804F4E06449
:10074000C4F5E064210AC1F10403CA40447804FA04
:1007500003F184781440214309010E4C0678A15519
:10076000047804F01F050124AC4005786D11AD003C
:1007700005F1E025C5F8004109E0047804F01F0503
:100780000124AC40044D0678761145F8264070BD32
:100790000CED00E000E400E080E100E002490143EC
:1007A000024A1160704700000000FA050CED00E0FD
:1007B00070470000114800783038052818D2DFE86B
:1007C00000F01303070B0F0001200D49086013E030
:1007D00002200B4908600FE00320094908600BE084
:1007E00004200749086007E000200549086003E08D
:1007F00000200349086000BF00BF704714010020BB
:100800003400002029B1064AD2690243044BDA6160
:1008100004E0034AD2698243014BDA617047000069
:100820000010024029B1064A12690243044B1A61C2
:1008300004E0034A12698243014B1A6170470000C9
:100840000010024029B1064A92690243044B9A61A2
:1008500004E0034A92698243014B9A6170470000A9
:100860000010024029B1064AD2680243044BDA6004
:1008700004E0034AD2688243014BDA60704700000B
:100880000010024030B500210022002400232D4D2D
:100890006D6805F00C0121B1042905D0082923D188
:1008A00005E0294D056022E0274D05601FE0254D3C
:1008B0006D6805F47012234D6D6805F480340225CF
:1008C00005EB92421CB9214D554305600BE01D4DCF
:1008D0006D6805F400351DB11C4D5543056002E0FF
:1008E000194D5543056002E0174D056000BF00BF7C
:1008F000144D6D6805F0F0010909154D6B5C056834
:10090000DD4045600F4D6D6805F4E061090A104D4A
:100910006B5C4568DD4085600A4D6D6805F460518B
:10092000C90A0B4D6B5C4568DD40C560054D6D68BF
:1009300005F44041890B074D6B5CC568B5FBF3F5C9
:10094000056130BD0010024000127A0000093D0030
:100950001400002024000020704710B500F002F8B9
:1009600010BD00000CB500200190009033480068D5
:1009700040F480303149086000BF3048006800F41E
:10098000003000900198401C0190009818B901981F
:10099000B0F5A06FF1D12948006800F4003010B123
:1009A0000120009001E0002000900098012843D130
:1009B0002348006840F0100021490860084600689C
:1009C00020F0030008600846006840F0020008605C
:1009D0001A48406819494860084640684860084617
:1009E000406840F4806048600846406820F47C100D
:1009F00048600846406840F4E810486008460068CF
:100A000040F08070086000BF0C48006800F0007083
:100A10000028F9D00948406820F0030007494860E1
:100A20000846406840F00200486000BF0348406844
:100A300000F00C000828F9D10CBD000000100240A5
:100A400000200240042808D14FF0E021096941F05C
:100A500004014FF0E022116107E04FF0E021096945
:100A600021F004014FF0E02211617047704700004F
:100A700010B51348006840F00100114908600846AD
:100A80004068104908400E494860084600680E4911
:100A900008400B4908600846006820F48020086080
:100AA0000846406820F4FE0048604FF41F0088604C
:100AB000FFF753FF4FF000600449086010BD0000CD
:100AC000001002400000FFF8FFFFF6FE08ED00E016
:100AD00008B501210846FFF795FE01210420FFF724
:100AE000B1FE0C20ADF8000018208DF803000320A3
:100AF0008DF8020069460248FFF714FD08BD0000AA
:100B0000000801402DE9FF4104460D4627462E46C8
:100B10006020ADF800000120ADF80200ADF80670CD
:100B20000020ADF8080069464FF0804000F072F8F0
:100B30000821C80600F0BEF80120ADF80200ADF8AB
:100B400006606946800700F0BFF80821C80600F07B
:100B5000F9F8BDE8FF8130B587B00025002440F2E8
:100B6000E730ADF814000020ADF81000ADF8160025
:100B7000ADF8120004A94FF0804000F0F7F86020B3
:100B8000ADF800000120ADF80200ADF806500020DD
:100B9000ADF8080069464FF0804000F03BF80821AE
:100BA000C80600F087F80120ADF80200ADF8064055
:100BB0000020ADF8080069464FF0804000F084F84E
:100BC0000821C80600F0BEF80121880700F006F8E9
:100BD0000121880700F00EF807B030BD21B102886E
:100BE00042F08002028004E002884FF67F731A40D0
:100BF0000280704721B1028842F00102028004E0C5
:100C000002884FF6FE731A40028070470146888CB6
:100C10007047000070B5002400220023058C4FF6B9
:100C2000FF6635400584028C8388848B4FF68F7570
:100C30002C404FF6FC752C400D882C434FF6FF5589
:100C40002A400D894FF6FF7606EA05252A434D888E
:100C500006EA05252A43154DA84202D0144DA842A4
:100C60001DD14FF2FF752A404D894FF6FF7606EAF7
:100C700005252A434FF6FF352A408D8806EA0525CB
:100C80002A434EF6FF752B404DF6FF752B408D899C
:100C900006EA05152B43CD8906EA05152B4383800B
:100CA0008483CD888587028470BD0000002C0140BC
:100CB000003401400A460021818B4FF6F77319403A
:100CC000114381837047000070B500220023002487
:100CD000058C4EF6FF7635400584038C8488828B24
:100CE00048F6FF752A404FF6FF452A400D884FF61B
:100CF000FF7606EA05252A434DF6FF752B400D8940
:100D000006EA05352B434D8806EA05352B430B4D86
:100D1000A84202D00A4DA84208D14BF6FF752C40DC
:100D20008D894FF6FF7606EA85152C4384808283F1
:100D3000CD88A0F84050038470BD0000002C014015
:100D4000003401400A460021818B4FF2FF731940A5
:100D50004FF6FF7303EA02231943818370478187AB
:100D60007047A0F8401070478184704700220288C5
:100D70001D4B98420ED01D4B98420BD0B0F1804FC6
:100D800008D01B4B984205D01A4B984202D01A4B00
:100D9000984204D14FF68F731A404B881A43174B71
:100DA000984207D0164B984204D04FF6FF431A40A2
:100DB000CB881A4302808B8883850B8803850A4B76
:100DC00098420BD0094B984208D00E4B984205D060
:100DD0000D4B984202D00D4B984201D10B7A0386FD
:100DE0000123838270470000002C01400034014041
:100DF0000004004000080040000C004000100040CB
:100E000000140040004001400044014000480140FF
:100E10003EB505460C460121C802FFF713FDADF8AB
:100E20000450ADF800400120ADF806000020ADF8F8
:100E3000020069460148FFF799FF3EBD002C0140C2
:100E400010B540F225511F4800F0D3F838B31D48C3
:100E500000F08AF9C4B21C48008800F40040F0B9E0
:100E60001948008800F4804088B10A2C03D0002083
:100E70001549088025E01448008840F400401249D4
:100E8000088040F225510F4800F03CF819E00D2C85
:100E900006D10D48008840F480400B49088010E0DE
:100EA00009480088C0F30D0008490C540648008822
:100EB000401C0549088008460088C72801DD00203D
:100EC000088010BD00380140300000204C00002098
:100ED00010B52021084800F07FF860B140F225519C
:100EE000054800F00FF80448001D00880349087009
:100EF00001200349087010BD004800401401002083
:100F00003C00002010B50022002340F66A14A142E4
:100F100000D100BF0A1201249440A3B2DC43048034
:100F200010BD21B1828942F40052828104E082899D
:100F30004DF6FF731A4082817047000010B50446D9
:100F40002048844209D101218803FFF78BFC00214E
:100F50004FF48040FFF786FC32E01B48844209D101
:100F600001214804FFF75EFC00214FF40030FFF739
:100F700059FC25E01548844209D101218804FFF776
:100F800051FC00214FF48020FFF74CFC18E0104882
:100F9000844209D10121C804FFF744FC00214FF429
:100FA0000020FFF73FFC0BE00A48844208D10121F2
:100FB0000805FFF737FC00214FF48010FFF732FCE3
:100FC00010BD0000003801400044004000480040CF
:100FD000004C00400050004002460020B1F5007F68
:100FE00000D100BF13880B400BB1012000E00020AE
:100FF000704770B50246002400230025002040F60B
:101000006A16B14200D100BFC1F3421501F01F03BF
:10101000012606FA03F3012D02D19689334006E03A
:10102000022D02D1168A334001E0968A33400C1219
:10103000012606FA04F41688344013B10CB10120DD
:1010400000E0002070BDF0B5034600240026002516
:10105000002040F66A17B94200D100BF1846C1F31C
:10106000421401F01F06012707FA06F5012C01D1F1
:101070000C3004E0022C01D1103000E014301AB121
:1010800007682F43076002E00768AF430760F0BDC1
:101090002DE9F04786B005460E460024A24600BF63
:1010A000A1460027B08900B100BF2F462C8A4CF61C
:1010B000FF700440F08804432C82AC894EF6F31094
:1010C0000440B08831890843718908430443AC81E6
:1010D000AC8A4FF6FF400440B0890443AC8201A8BB
:1010E000FFF7D0FB1F48874202D1DDF810A001E0D6
:1010F000DDF80CA0A88900F4004040B10AEBCA005A
:1011000000EB0A1031684900B0FBF1F807E00AEB88
:10111000CA0000EB0A1031688900B0FBF1F86420C6
:10112000B8FBF0F004012009642101FB1089A889B3
:1011300000F4004040B1322000EBC900B0FBF1F0F8
:1011400000F00700044308E0322000EB091064219E
:10115000B0FBF1F000F00F0004432C8106B0BDE8B5
:10116000F08700000038014001468888C0F308007D
:10117000704700001FB501211F48FFF75FFA0121EA
:101180000920FFF75FFB0120ADF80C0010208DF85F
:101190000F0003208DF80E0003A91848FFF7C2F9CD
:1011A0000220ADF80C0028208DF80F0003A9134889
:1011B000FFF7B8F901210846FFF794F902200190E2
:1011C00000208DF8080008208DF8090001208DF816
:1011D0000A0001A8FFF73CF907208DF80000032062
:1011E0008DF8010001208DF802008DF8030068469B
:1011F000FFF79CFA1FBD000000023000000C014008
:1012000010B501210548FFF76CFA0D2000F0B8F881
:1012100001210248FFF763FA10BD0000000C0140F5
:1012200000BFFEE700BF70472DE9F84F2648FFF7E3
:10123000EDFC009000F052FB8046244A244B00F065
:101240009DFB06460022234B00F098FB044600223B
:101250004FF0804300F0EAF9824600F0A9F91E49F8
:1012600008600846006800F0BFFC1C4908801A4866
:10127000006800F081FC04460022194B00F042FB9C
:1012800004D84FF6D460174908801BE0164912486D
:10129000006800F048FD01D8012400E00024134953
:1012A0000D48006800F0C0FC01D8012000E00020DB
:1012B000044024B14FF4C8700A49088002E00020BD
:1012C00008490880BDE8F88F002C01409A99999947
:1012D0009999B93F00004140440000200448004073
:1012E0000000204048000020000020410000A041F4
:1012F00010B56FF00400FFF7A5FB0A4800680A4923
:10130000B0FBF1F0094908700846007800EB400195
:10131000C1EBC0104FF6FF7101EAC000044908801C
:1013200010BD00000000002000127A0028000020FC
:101330002A0000200146114A12884A434FF0E02358
:101340005A6100229A611A46126942F001021A613A
:1013500000BF4FF0E022106900F001021AB100F462
:101360008032002AF5D04FF0E022126922F001020B
:101370004FF0E0231A6100229A6170472A00002092
:101380000146114A12784A434FF0E0235A61002285
:101390009A611A46126942F001021A6100BF4FF0C9
:1013A000E022106900F001021AB100F48032002A34
:1013B000F5D04FF0E022126922F001024FF0E02355
:1013C0001A6100229A61704728000020FFF750FB45
:1013D0004FF4A060FFF7E2F941F61F4141F2873078
:1013E000FFF716FD4FF4165000F08AF84FF4165030
:1013F00000F02AF8FFF7BEFEFFF77AFFFFF776F955
:10140000FFF766FBFFF7A7FB4FF4C8710846FFF72D
:1014100079FB16E04FF4C8710846FFF773FBFFF73E
:10142000EFFEFFF701FF0748007820B1FFF7C2F990
:10143000002004490870FEF701FF4FF47A70FFF7AF
:1014400079FFE7E73C00002010B586B00446012193
:101450008804FFF7D7F901210820FFF7F3F92648A0
:10146000FFF76CFD4FF48060ADF8140018208DF884
:10147000170003208DF8160005A92048FFF752F841
:101480004FF40060ADF8140004208DF8170003201D
:101490008DF8160005A91948FFF744F827208DF8A4
:1014A000000003208DF8010004208DF802000120C7
:1014B0008DF803006846FFF739F901940020ADF874
:1014C00010000C20ADF80E000020ADF80800ADF8BB
:1014D0000C00ADF80A0001A90748FFF7D9FD012269
:1014E00040F225510448FFF7AEFD01210248FFF705
:1014F00018FD06B010BD000000480040000C01407F
:1015000010B586B00446012144F20400FFF79AF9B1
:101510002548FFF713FD4FF40070ADF814001820B4
:101520008DF8170003208DF8160005A91F48FEF757
:10153000F9FF4FF48060ADF8140004208DF8170017
:1015400003208DF8160005A91848FEF7EBFF2520AB
:101550008DF8000003208DF801008DF802000120B5
:101560008DF803006846FFF7E1F801940020ADF81C
:1015700010000C20ADF80E000020ADF80800ADF80A
:101580000C00ADF80A0001A90748FFF781FD012210
:1015900040F225510448FFF756FD01210248FFF7AC
:1015A000C0FC06B010BD000000380140000801403A
:1015B00021F00042A2F16052B2F5801F01F0004319
:1015C00028BFD2F17F6C0BD95FEA001C43EAC2024C
:1015D00042EB507018BF704728BF20F001007047E1
:1015E000B2F5801FBCBF184670474FEA410C1CF58E
:1015F000001F02D2084600F091BB70B500F068FAF7
:1016000000000089FFF7F6BF4FF00040A0F5800012
:101610007047491058BFC1F140415B1058BFC3F13A
:1016200040438B42EFF30080704700002DE9C0413A
:1016300030B4DFF8A0C23CEA111418BF3CEA13141E
:1016400000F0EC8081EA03051CEA111444EAD57429
:1016500018BF1CEA131500F0C780A4EB05044FF077
:10166000004545EAC12145EAC32341EA505143EA16
:10167000525304F17F74994204F500344FEAC020BC
:101680004FEAC22208BF904200F09C804FEA1365E7
:101690000FF24016765D4FEA134506FB05F7C7F1DA
:1016A000807706FB07F74FEAD737A7FB0368764238
:1016B000C8F58038A7FB06CE38BFA8F1010807FBA4
:1016C00008E64FF0000EA6FB028CE6FB03CEDCF131
:1016D000000CCEF1004E38BFAEF1010EA6FB0C5847
:1016E0004FF000074FF00005E6FB0E87A1FB08C690
:1016F000A0FB07CE16EB0E0645F10005E1FB0765E2
:1017000015F1E04E7EBFA4F580345FEA46066D41D8
:1017100016F1800745F100054FEA17274FEA0666E4
:1017200047EA0567A6F1DE46B6F1805F4FEA152568
:101730001FD9384624F0010C05EBC471BCF1FE6FD3
:1017400001EB0C1102D8F0BCBDE8008124425CBF63
:1017500001F5801E9EEAC47F02D4F0BCBDE8008182
:10176000244238D4F0BCA1F1C041BDE8004100F0F2
:10177000FDB94FEAD22242EA43524FEAD323A7FBF4
:1017800002864FEAD02040EA415007FB03661EEA7A
:101790000E0F4FEAD12105FB026658BFA6EB00569B
:1017A000B6EB00564FEA520E4EEAC37E18EB0E0E11
:1017B00056EB530EBDD518EB02085E417F1C55F168
:1017C0000005B6E74FF480154FF000074FF0000614
:1017D0004FF00008ADE7F0BC4FF0000001F1C04150
:1017E00001F00041BDE8008111EA0C1F0CEA13155D
:1017F00000D00CE013EA0C1F00F025804FF0000031
:10180000F0BC81EA030101F00041BDE80081F0BCB9
:10181000BDE8004181EA030100F0A8B9F0BCBDE8D1
:10182000004170B500F054F9097EFC3E00F007B8A5
:1018300081EA03014FF0000001F00041704781EAA6
:10184000030100F093B9F0BCBDE800414FF0000087
:1018500021497047FFFDFBF9F7F5F4F2F0EEEDEBEF
:10186000E9E8E6E4E3E1E0DEDDDBDAD8D7D5D4D39E
:10187000D1D0CFCDCCCBCAC8C7C6C5C4C2C1C0BFEA
:10188000BEBDBCBBBAB9B8B7B6B5B4B3B2B1B0AFF0
:10189000AEADACABAAA9A8A8A7A6A5A4A3A3A2A1D4
:1018A000A09F9F9E9D9C9C9B9A999998979796958F
:1018B00095949393929191908F8F8E8E8D8C8C8B2B
:1018C0008B8A8989888887878685858484838382B3
:1018D000828181800000FF070000F87FB0FA80F36A
:1018E00010FA03F10AD0C3F11D0303F580634FEA38
:1018F00041504FEA035202EBD12170474FF00000F4
:101900007047000051EA030C17D41CF5801F58BF24
:10191000BCF5801F00F10680994218BF704708BFD0
:101920009042704707D711F5801F58BF13F5801FED
:1019300019D499427047894270471CF5801F08D519
:10194000BCF5801FF7D58B4218BF704708BF824295
:1019500070474FF4001C1CEB410F38BF1CEB430FCA
:1019600001D28B42704770B500F0B2F89224490062
:101970004FF000514FF08053FFF74BBEDFF848C1E6
:1019800070B51CEA111E1EBF1CEA13159EEA0C0F4F
:1019900095EA0C0F00F06F8081EA030423EA4C13F0
:1019A0004EEAD47E21EA4C1141F4801143F48013B5
:1019B000AE44A1FB024CA0FB0365AEF17F7E36195D
:1019C00055EB0C05A1FB034C4CF10003A0FB021CE2
:1019D00016EB0C06654153F10003094218BF46F0AF
:1019E000010613F4007F0BD14FEA03314FEA0530B3
:1019F000340341EA155140EA16506FF003020AE041
:101A00004FEAC3214FEAC520F40241EA555140EAAA
:101A100056506FF0020202EB2E4201EB025585EAAE
:101A2000CE710AD05FEA440C18BF24F0004450F194
:101A3000000041F1000120EAD47040F2FE7C6245D2
:101A400000D270BDA84214BF4FF080444FF0404414
:101A5000002E08BF0024BEF1806FA8BFA1F1C041D5
:101A6000BDE8704080F282804FF0000001F1C0417B
:101A700001F0004170479EEA0C0F0CEA131518BFE5
:101A800095EA0C0F06D04FF0000081EA030E0EF02D
:101A9000004170BD00F01CF88900013E00F007B85D
:101AA00000F009B84FEA430C5FEA5C5C08D081EAB9
:101AB000030100F05BB84FEA410C5FEA5C5CF6D1D1
:101AC0004FF00000014970470000FF070000F87F59
:101AD0000EF1020E2EF0030E5EF8046B364205D4B2
:101AE000012A43EB030515F5001F12D8012841EB2D
:101AF000010C1CF5001F0CD80ED14FEAD17C15F556
:101B0000001F0CEB4C0C0CF1020C08BF4CEBD37C0F
:101B100004E04FF0080C01E04FEAD37C0CEB4C05DD
:101B200026FA05F606F00706B6F1040C06D20EEB0F
:101B3000860CBDE870404CF0010C6047DFE80CF00B
:101B4000090B02024FF000414FF00000A1F5002107
:101B500070BD19461046012851EB010418BFD4F599
:101B6000001484BF002001F0004170BD0808A0F5FA
:101B700000114FEA3101704743004FEAD30C4FEA9E
:101B80003C0C43401FBF40070CF1605113F0FE4F67
:101B900070471CF0006F03D100200CF0004170472B
:101BA0000CF0004343EA507010B540EACC0000F05E
:101BB0006FF800BF000000924FEA0001FFF7D6BFA8
:101BC0004FF000414FF00000A1F500217047401098
:101BD00058BFC0F14040491058BFC1F14041814257
:101BE000EFF3008070470000C10DD1F19E0206DBCB
:101BF0004FEA002343F0004323FA02F0704700420B
:101C000007D54FEA4001B1F1FE4F02D24FF000007C
:101C1000704710B500F03CF84992248000207047CE
:101C20006FEA20007047000050EA010C00F11380B9
:101C30001CF5000F58BFBCF5000F01D48842704757
:101C400007D710F5000F58BF11F5000F15D48842C3
:101C50007047894270471CF5000F04D5BCF5000F92
:101C6000F7D5814270474FF0807C1CEB400F38BFA6
:101C70001CEB410F01D28142704710B500F008F80B
:101C8000922449004FF000504FF08051FFF79FBF62
:101C90000EF1020E2EF0030E5EF8044B244204D423
:101CA0004FEA4102B2F17F4F11D84FEA4003B3F13E
:101CB0007F4F0CD80ED14FEAD07CB2F17F4F0CEBA6
:101CC0004C0C0CF1020C08BF4CEBD17C04E04FF043
:101CD000080C01E04FEAD17C0CEB4C0324FA03F42E
:101CE00004F00704B4F1040C06D20EEB840CBDE83A
:101CF00010404CF0010C6047DFE80CF007080202CE
:101D00004FF00040A0F5800010BD0846420018BF0B
:101D1000D2F1807288BF00F0004010BDFF2141EA7F
:101D2000D050C005704751EA000C00F113801CF53B
:101D3000000F58BFBCF5000F01D48142704707D790
:101D400011F5000F58BF10F5000F15D481427047F0
:101D5000894270471CF5000F04D5BCF5000FF7D57C
:101D6000884270474FF0807C1CEB410F38BF1CEB62
:101D7000400F01D28842704780EA010081EA0001E9
:101D800080EA0100FFF779BFA81D000800000020CD
:101D90004C00000028010008F41D00084C00002041
:101DA000440800004401000800A24A0400000000AA
:101DB00000000000010203040607080900000000FB
:101DC00001020304010203040607080902040608CD
:101DD0000000000000000000000000000000000003
:101DE00000000000000000000000000000000000F3
:041DF00000000000EF
:04000005080000ED02
:00000001FF
