:020000040800F2
:10000000900A0020ED0100081D370008B12D0008FE
:1000100045360008F92400080954000800000000D3
:10002000000000000000000000000000A13E0008E9
:10003000B529000800000000CD3700083D43000846
:10004000070200080702000807020008070200086C
:10005000070200080702000807020008B929000883
:10006000070200080702000807020008070200084C
:10007000070200080702000807020008070200083C
:10008000070200080702000807020008070200082C
:10009000070200080702000807020008070200081C
:1000A00007020008E54600080702000807020008EA
:1000B0000702000895480008754900080702000873
:1000C00007020008070200080702000807020008EC
:1000D000070200080702000807020008F5500008A0
:1000E00007020008070200080702000800F002F8F3
:1000F00000F06DF80AA090E8000C82448344AAF155
:100100000107DA4501D100F062F8AFF2090EBAE852
:100110000F0013F0010F18BFFB1A43F0010318473B
:1001200044A6000064A600000A444FF0000C10F83A
:10013000013B13F0070408BF10F8014B1D1108BF65
:1001400010F8015B641E05D010F8016B641E01F805
:10015000016BF9D113F0080F1EBF10F8014BAD1C55
:100160000C1B09D16D1E58BF01F801CBFAD505E073
:1001700014F8016B01F8016B6D1EF9D59142D6D3CD
:10018000704700000023002400250026103A28BFF5
:1001900078C1FBD8520728BF30C148BF0B607047F9
:1001A000662909F03F83002070471FB500F048FD25
:1001B00004000020002108F097F9401C6060002036
:1001C000002108F07BF9E0601FBD10B510BD00F004
:1001D00063FE1146FFF7E9FF07F08AF801F006F920
:1001E00003B4FFF7F2FF03BC01F074FB094880473A
:1001F00009480047FEE7FEE7FEE7FEE7FEE7FEE709
:10020000FEE7FEE7FEE7FEE704480549054A064B20
:100210007047000045440008ED00000890040020ED
:10022000900A0020900600209006002010B54C1087
:1002300084EA530404D54042C1F1000138BF491E8D
:100240001B4204D55242C3F1000338BF5B1E00F0CD
:10025000F5F914F0804F04D04042C1F1000138BFDD
:10026000491E14F0004F04D05242C3F1000338BFBE
:100270005B1E10BD0FB41CB5074B06AA7B44694634
:100280000090059800F071FC0020694600F080FCA9
:100290001CBC5DF814FB00001109000070B5044699
:1002A00085690068C10601D5302600E02026C00718
:1002B00007D070BDD4E9012130469047206A401C28
:1002C00020626D1EF6D570BD70B504468569007854
:1002D000C00707D170BDD4E9012120209047206AD2
:1002E000401C20626D1EF6D570BD2DE9F0474FF021
:1002F000000A89460446C0F820A02046E1688847E5
:10030000002876D0252806D0D4E901219047206A1C
:10031000401C2062F1E7E168204600258847C4F8C8
:100320001CA006460027C4F818A02A2E09D0304683
:1003300005F061F938B304EB8708303EC8F818605F
:1003400019E059F8041B204604EB87029161E1682B
:100350008847012F064618D1E069002820DA25F0E9
:1003600020051DE0D8F8180000EB800006EB4000E7
:100370003038C8F818002046E1688847064605F07E
:100380003AF90028EED1012F0AD02E2E08D12046AE
:10039000E16888477F1C0646022F45F02005C4DB34
:1003A000A069002803DA404245F00105A061E80792
:1003B00001D025F01005B6B1A6F14100192802D8E8
:1003C000203645F400654A463146204625604D46B4
:1003D000FFF7E6FE58B1012806D0ED1D25F0070015
:1003E00000F1080989E704E005F1040985E73046D2
:1003F0008AE7206ABDE8F08740EA010310B59B0751
:100400000FD1042A0DD310C808C9121F9C42F8D07E
:1004100020BA19BA884201D9012010BD4FF0FF302F
:1004200010BD1AB1D30703D0521C07E0002010BD45
:1004300010F8013B11F8014B1B1B07D110F8013BD1
:1004400011F8014B1B1B01D1921EF1D1184610BDB2
:1004500010B5431C02E010F8011B71B18107FAD1FD
:100460004FF0013202C88C1A8C4314EAC211F9D041
:10047000C01A0A0603D0C01E10BDC01A10BD0A045F
:1004800001D0801E10BD0902FCD0401E10BD421ECE
:1004900012F8013F002BFBD111F8013B002B02F8B1
:1004A000013BF9D17047032A40F2308010F0030C71
:1004B00000F0158011F8013BBCF1020F624498BFB7
:1004C00011F801CB00F8013B38BF11F8013BA2F154
:1004D000040298BF00F801CB38BF00F8013B11F0CF
:1004E000030300F02580083AC0F0088051F8043B6F
:1004F000083A51F804CBA0E80810F5E7121D5CBFDC
:1005000051F8043B40F8043BAFF30080D20724BF0E
:1005100011F8013B11F801CB48BF11F8012B24BFA2
:1005200000F8013B00F801CB48BF00F8012B7047F1
:1005300010B5203AC0F00B80B1E81850203AA0E87E
:100540001850B1E81850A0E81850BFF4F5AF5FEAB2
:10055000027C24BFB1E81850A0E8185044BF18C965
:1005600018C0BDE810405FEA827C24BF51F8043B0C
:1005700040F8043B08BF7047D20728BF31F8023B60
:1005800048BF11F8012B28BF20F8023B48BF00F8F4
:10059000012B704702F0FF0343EA032242EA0242C2
:1005A00000F002B84FF000020429C0F0128010F0F1
:1005B000030C00F01B80CCF1040CBCF1020F18BF3F
:1005C00000F8012BA8BF20F8022BA1EB0C0100F0D2
:1005D0000DB85FEAC17C24BF00F8012B00F8012BA5
:1005E00048BF00F8012B70474FF0000200B51346DA
:1005F00094469646203922BFA0E80C50A0E80C5043
:10060000B1F12001BFF4F7AF090728BFA0E80C50F3
:1006100048BF0CC05DF804EB890028BF40F8042BEC
:1006200008BF704748BF20F8022B11F0804F18BF59
:1006300000F8012B704770477047704753EA020C6F
:1006400000F069802DE9F04B4FF00006002B1FBF32
:10065000B3FA83F503FA05F424FA05F65E4012BFF7
:100660001643B2FA82F502FA05F4C5F120051EBF61
:1006700022FA05FC44EA0C04203556EA044C4FEA01
:10068000144418BF641C4FF000084FF0000990425A
:1006900071EB030C39D3002919BFB1FA81F701FAC4
:1006A00007F6B0FA80F700FA07F6C7F120071EBF79
:1006B00020FA07FC46EA0C062037B6FBF4FCA7EB51
:1006C0000507103F07F01F0BCBF120060CFA0BFBC0
:1006D0002CFA06F644BFB3460026202FA4BF5E4680
:1006E0004FF0000B5BEA060C08BF4FF0010B19EB53
:1006F0000B09ABFB027C48EB0608C01B06FB02CCD7
:100700000BFB03CC71EB0C01C1E70B4602464146E3
:100710004846BDE8F08B13B54FF000004FF00001E4
:10072000AFF30080BDE81C40704710B500F08CFAB4
:10073000006810BD10B5044600F086FA046010BDD4
:1007400070472DE9FF4F0C461E464FF0FF378BB028
:10075000D2E90001DDF860800A908A46C1F30A55AB
:1007600005B93D46002108464FF00000BAF1000FE0
:1007700000F4400005DA00EB80004FF4400101EA8C
:1007800050004FEA9059B9F1010F00DDB9460A98BF
:1007900050EA4A000ED044F61050A5F2FF3545430A
:1007A0002F14B8F1000F1ED07542291E1EDDC9F1AD
:1007B00000021CE0B8F1010F4FF0000001D0302121
:1007C00003E0F24305E02154401CB042FBDB30461D
:1007D0000022002121540B99C1F80880C1E90020B2
:1007E0000FB0BDE8F08FBD1B6D1CDEE74A4600DA96
:1007F000694206A800F0DAFA06AB93E8070003ABFB
:1008000083E8070050460A9901F08CF88DE807004C
:10081000A0F500501F3800900398002D0ADD42F229
:100820001F014A460844002303A90390684601F0CB
:1008300037FB09E0A0F500504A461F38002303A902
:100840000390684601F056FB8DE807000004000C99
:1008500003D04FF0FF30410800E01046B8F1000F20
:1008600003D00022009215461EE0751E05D400F04C
:10087000EFF9303262556D1EF9D5B34601220843B7
:1008800002D000227F1C04E02078302801D1002211
:100890007F1E002A099784D01DE0112D07DA00F091
:1008A000D7F9303262556D1C50EA0102F5D1084388
:1008B00002D00098C8B10EE00021681E05E0235C5C
:1008C000625C63542254401E491C8142F7DBAB46F4
:1008D000A81B401E0990002004F80B000B98099AF1
:1008E000C0F80880C0E9002B7AE711264FF0000815
:1008F00057E72DE9F04F88460446D21D22F0070144
:1009000091B0D1E90001CDE90A0104F07FFD024672
:100910000B98C00F01D02D2007E02068810701D57A
:100920002B2002E0202101EAC000032A099001D017
:10093000072A05DB03464146204600F0D7F90BE1C4
:100940002078800601D5E06900E00620B8F1650F47
:10095000814606D0B8F1660F18D0B8F1670F70D194
:1009600031E00020B9F1110F009001DB112301E00B
:1009700009F101030AAA01A90CA8FFF7E2FEDDE9CB
:100980000C70002609F10105834647E001204B4623
:1009900000904FF000470AAA01A90CA8FFF7D1FE6A
:1009A000DDE90DB00C995D46002610B909F1010092
:1009B0000D18B9EB050003D4C0F1FF3609F10105AC
:1009C000A5EB09002BE0B9F1010F01DA4FF00109A5
:1009D0000020B9F1110F0090484601DD112300E01D
:1009E00003460AAA01A90CA8FFF7ABFEDDE90C70CB
:1009F0004D4600268346207800070AD4AB4500DA2E
:100A00005D4601A8012D04DD411911F8011C3029B2
:100A100007D04F4502DA17F1040F04DA01208246AD
:100A20000FE06D1EEEE7002F02DCED1B3E4403E0FD
:100A3000781CA84200DD7D1CB81B00F1010A4FF0B4
:100A400000472078000703D4AA4501DB4FF0FF3AA6
:100A50000021B7F1004F0DF143088DF8431024D069
:100A600002202B23002F01DA7F422D230A21021EB0
:100A7000A0F1010000DC5FB197FBF1FC97FBF1F204
:100A800001FB1C7C17460CF1300C08F801CDEEE799
:100A9000A8F1010003702188090501D5452100E076
:100AA0006521A0F1010800F8011C09980FA9A1EB2C
:100AB0000807FF1D00B10120411901EBEA70A1698F
:100AC0003844081A401EA0612078C00602D420468F
:100AD000FFF7E4FB099828B1D4E901219047206A87
:100AE000401C20622078C00622D52046FFF7D6FBA6
:100AF0001EE0002E04DBB34502DD01A8805D00E0AE
:100B00003020D4E901219047206A401C2062761CE5
:100B1000AAF101005FEA000A0AD100F091F8C0686A
:100B20000168405CD4E901219047206A401C2062A2
:100B3000281EA5F10105DCDC07E0D4E9012118F845
:100B4000010B9047206A401C2062381EA7F1010764
:100B5000F3DC2046FFF7B8FB032011B041E60000AC
:100B600001694A1C02610878704700B58FB0CDE971
:100B700001310021059105497944CDE90310114661
:100B80006846FFF7B2FB0FB000BD0000E5FFFFFFB6
:100B90000A6802F8010B0A60704700000FB40023D6
:100BA00000B589B00CA900910B99CB60214B7B4417
:100BB0000693214B7B44079304236FF00042CDE959
:100BC00001321E4A7A446B4608920246002008F021
:100BD0008BFE09B05DF814FB70B506464FF0FF3090
:100BE00015460C46324686B00091CDE901016946B2
:100BF0000020049004A8FFF7D1FF024604982118B2
:100C000025B108B1084600E0204628600498002875
:100C10000DD0002A02DD0098884208D03246081B19
:100C200069460094CDE9010404A8FFF7B7FF06B0B8
:100C300070BD0000BB010000D301000013010000E3
:100C400000487047500400200048704730040020DE
:100C500030B5B0F10A024FEA900E71F100034EEA8E
:100C6000817EB0EB0E0061EB91014FEA101E4EEA5F
:100C7000017E10EB0E0041EB11114FEA102E4EEAEF
:100C8000016E10EB0E0041EB11214FEA104E4EEABF
:100C9000014E10EB0E0041EB1141401841F10001F3
:100CA0004FEAD00040EA41704FEAD10110EB8005D5
:100CB0004FEA810444EA907444EB01046D1944EB5B
:100CC0000404521BA3414FF0000348BF0A3200D571
:100CD00030BD401C41F1000130BD10B5044600F0AC
:100CE00001F90068005D00F0010010BD2DE9F04140
:100CF0001F46044603260168072A01F4006004DB4E
:100D000008B116A505E016A503E008B115A500E099
:100D100015A521F010002060A069C01EA0610FB1D0
:100D2000401EA0612046FFF7B9FA4FB1D4E9012176
:100D300038469047206A401C2062C01C206206E0B2
:100D4000206AFAE7D4E9012115F8010B9047761ED5
:100D5000F8D22046FFF7B8FABDE8F0814E414E00C8
:100D60006E616E00494E4600696E6600426842B18F
:100D7000016811F8013B23B1521EC0E90012184668
:100D800070470121C160881E704742685AB1C3682C
:100D9000016843B983688B4205D0491E521CC0E9E3
:100DA0000012002070474FF0FF3070472DE9F047E8
:100DB000814616468AB0354878440DC88DE80D0046
:100DC00032487844801C03AC0DC884E80D0041F61D
:100DD0009B300844372190FBF1F290FBF1F5A5F12F
:100DE000800501FB12041B3C02D56442012000E097
:100DF0000020DFF898A080460027FA44AAF1BE0A36
:100E00000EE0E0070AD03246684607EB47010123AF
:100E10000AEB810101F06EF88DE8070064107F1C79
:100E2000002CEED1194F7F44AE3F19E0E80715D0F2
:100E300007EB04100DF1180A90E80E008AE80E0086
:100E4000C068F04201D1981908903246012306A9E2
:100E500003A801F04FF803AB83E807006D10641C92
:100E6000002DE3D14FF0010332466946B8F1000F7F
:100E700003A802D001F014F801E001F03BF8C9E941
:100E80000001C9F808200AB0BDE8F08740990000C9
:100E900000487047300400207546FFF7F9FFAE4662
:100EA00005006946534620F00700854618B020B576
:100EB000FFF7AAF9BDE820404FF000064FF0000709
:100EC0004FF000084FF0000B21F00701AC46ACE8F2
:100ED000C009ACE8C009ACE8C009ACE8C0098D465F
:100EE0007047000010B5FFF7ABFE001D10BD00BF3E
:100EF000F97500002DE9FF4F06468BB00878FF28F2
:100F000006D0491C2D2805D000244FF0000908E028
:100F100000200CE00124F8E709EB8903491C00EBF1
:100F200043090878FF28F7D114B1C9F100008146C0
:100F3000107800252C46AA4629462D2801D02B28BA
:100F400004D1521C2D2813D0002082468B461078E5
:100F5000FF280FD04FF0000C0A21521CA5FB01788E
:100F600004FB018105FB0C11C5194BEB0104EEE7F5
:100F70000120EAE7002108464FF00000BAF1000F17
:100F800002D000EB80004008C0F38157012F01DD43
:100F90004FF0FF370E9955EA040009EB01080BD01A
:100FA0004FF0020918F5FA7F16DA4FEACA70002FDF
:100FB000706008DD012007E04FEACA70C6E900B0A2
:100FC0000FB0BDE8F08F00203060FFF73DFEC0F8A5
:100FD00000901821084616E0B8F5FA7F18DD002FBA
:100FE00002DAF748784401E0F6487844D0E9001086
:100FF000C6E9001040EACA707060FFF725FEC0F82D
:101000000090142108460FB0BDE8F04F08F007BC6F
:10101000002108464FF00000B8F10001099002DA03
:10102000C7F1000200E03A4601DAC8F1000106A863
:10103000FFF7BCFE06AB93E8070003AB83E80700AD
:1010400044F23E005BEA04010090584604D144F2A9
:101050001E012C465D460091210C0904014306D176
:101060000099240444EA15442D041039009104F039
:101070007F41014306D10099240244EA15642D0200
:101080000839009104F07041014306D10099240110
:1010900044EA15742D01091F009104F040410143F9
:1010A00006D10099A40044EA9574AD00891E009110
:1010B00004F00041084304D100986D196441401EBA
:1010C00000904FF001033A466846B8F1000FCDE9B1
:1010D000014503A902DD00F022FF01E000F0F5FE6A
:1010E000BAF1000F04460D4601D084F000440021FF
:1010F00008464FF00000099940F2FF77484010F091
:101100000C0F07D124F00040284303D0C4F30A5049
:10111000B84212D1FFF798FDC0F80090C4F30A500E
:10112000B8420AD1A8487844D0E90010C6E90010B6
:1011300004F000410843706042E7C6E900543FE70D
:101140002DE9FF4F1F464FF0000A4FF0FF3845468C
:1011500091B0D7E90146CDF83CA0FFF771FDC0681A
:101160000168405C1090B96912986D1C8847396A13
:10117000814688470028F6D1B9F1FF3F0AD0002EFA
:1011800024F4D06411DDB9F12B0F08D0B9F12D0F83
:101190000BD102E0404615B013E744F48064B9690E
:1011A00012986D1C8847761E8146600504A901D5FA
:1011B0002D2000E02B20002E01F1010B0DF1300855
:1011C0008DF810003FDDB9F1690F08D0B9F1490F72
:1011D00005D0B9F16E0F02D0B9F14E0F1CD13B46CC
:1011E00001A8009580E85002DDE912126FF00200BC
:1011F00008F07EFBC11CCED10EE0B96912986D1CBF
:10120000884781461398761E44F4007405600F9851
:10121000401C002E0F9016DDB9F1300FEDD0B9F162
:10122000780F02D0B9F1580F0DD10F9801280AD1CB
:101230003B46CDE90054DDE91212001F029608F08A
:1012400055FBC11CA7D1109989453ED144F08004BB
:1012500006E01399681CAAF1010A44F400740860BE
:10126000B9696D1C1298761E884730288146F0D0E7
:101270002BE01099894505D1200603D4761E44F051
:10128000800418E0484604F0B6F908B3761E0DF164
:1012900023018B4544F4007408D2A9F130000BF807
:1012A000010B200607D5AAF1010003E0200602D4B5
:1012B0000AF101008246A00502D51399681C086056
:1012C000B96912986D1C88478146002ED1DC53E025
:1012D000002E51DDB9F1650F02D0B9F1450F4BD1A8
:1012E000A00549D5B9696D1C1298761E24F4407486
:1012F0008847002E81460CDD2B2804D0B9F12D0F34
:1013000007D144F48074B96912986D1C8847761E21
:101310008146E00501D52D2100E02B2108F8011BB5
:10132000CDF8008021E0761E0DF13901884544F4A6
:1013300000740CD2A9F1300010F0FF0088F8000012
:1013400002D10099884509D908F1010806E0E005B5
:1013500001D51E4801E042F20F708246B969129829
:101360006D1C8847814613980560002E04DD4846B1
:1013700004F041F90028D6D1F96912988847FF2076
:1013800053468BF8000088F8000000200A900B906C
:1013900004AA0CA90AA8FFF7ADFDA00502D46FF0BE
:1013A0000100F8E614F0240F12D0E0071CD13868D1
:1013B000DDE90A12031D3B600068C0E9001213E07A
:1013C000A4970000969700005A960000F1D8FFFFFE
:1013D0000AA9684604F09EF8E00705D13868009A2B
:1013E000011D3960006802602846D4E610B5044645
:1013F000AFF300802046BDE81040FEF7F1BE0000CC
:101400004FF0013C50F8042B51F8043B9A4221D193
:10141000A2EB0C03934313EACC1317D150F8042B1F
:1014200051F8043B9A4215D1A2EB0C03934313EA03
:10143000CC130BD150F8042B51F8043B9A4209D13C
:10144000A2EB0C03934313EACC13DBD04FF0000064
:10145000704700BFD01A01BAB1FA81F101F018014A
:1014600022FA01F0CB40C1F12001DBB2C0B2C01AB8
:101470002CFA01F3D11A914311EAC311E6D1704756
:101480002DE9FF4F1F464FF03C0987B04FF0004257
:10149000DDE9141001F10108DDF858A002EA40501E
:1014A0000390002005908346054604460490B969E0
:1014B000461E08988847AAF1010A0290BAF1000F67
:1014C0003BDD02982E2815D0102100F01CFA0028D0
:1014D0002EDB4FF0010B0599014317D0B9F1000F36
:1014E0000BDB4A46C11700F0FBF905430C43A9F199
:1014F000040905E0012004900BE008B145F0010566
:1015000001200590049820B9361D02E0049800B12E
:10151000361FB969089808F101088847BBF1000F28
:10152000AAF1010A0290C9D00999C1F80080C5E763
:101530000298702808D0502806D0F9690898884782
:10154000BBF1000F14D04FE0002002900120BBF14E
:10155000000F049009D0B969089808F1010888477C
:10156000AAF10109B9F1000F07DCF9690898884769
:101570006FF001000BB0BDE8F08F2B2804D02D28B0
:101580000CD14FF0FF300490B969089808F10108B8
:101590008847A9F10109B9F1000FE6DD411CE4D04B
:1015A0000A2100F0B0F90028DFDB029908F10108F8
:1015B00001EB810100EB41000290B969089888476E
:1015C0000A2100F0A0F9099AA9F10109B9F1000F67
:1015D000C2F8008001DD0028E7DAF9690898884739
:1015E0000499029800FB016655EA040004D004F057
:1015F0004041090002D006E0039898E0A40044EAC4
:101600009574AD00B61E04F00041080002D16D19BA
:101610006441761E159810F0240F03D04FF00B098B
:101620005C4803E04FF028096FF07D008246564584
:1016300007DAAAEB06018944B9F1410F01DD4FF049
:10164000410901200021A9F1010200F049F90246F7
:1016500028400B462140084301D0012100E0002131
:10166000501E029143F1FF3128402140084301D030
:10167000012000E000200299834651EA0B014FD07F
:10168000002108464FF00000039900F4400039B1F2
:1016900000EB80004FF4400100EBD07001EA6000E5
:1016A0008015012802DD4FF0FF3000E013D0401C10
:1016B00036D0029860B3BBF1000F0CD14A4601202E
:1016C000002100F00DF928402140084301D00120FD
:1016D00000E00020E0B101204A46002100F000F9BE
:1016E000034640190A4661412D1A8C4111D3B9F1C4
:1016F000400F09DD159810F0240F02D0AAF134062E
:1017000003E0AAF1170600E0761C00254FF0004424
:1017100006E05B1E42F1FF3220EA030521EA0204E3
:10172000CAF10100B04206DA1B4903980843019050
:10173000002000900EE0039AC4F3D321E80A0A4384
:10174000164940EA44500A433146CDE90002684652
:1017500003F046FF159810F0240F0BD01598C00722
:1017600015D13868DDE90012031D3B600068C0E94F
:1017700000120CE002A8694603F0CCFE1598C007E1
:1017800005D13868029A011D396000680260404640
:10179000F0E6000002FCFFFF0000F07F0000F03FD9
:1017A0002DE9FF4F92461D4685B04FF00041DDE91F
:1017B000124BDDE914727F1E01EA4B50414940F0A3
:1017C000FF4940EA0108002122F020004928049145
:1017D00002D04E2828D04CE03BA0012607C88DE857
:1017E0000700A9690698641C88477F1E014606D435
:1017F0001DF8060018B121F0200181420BD0E969E3
:1018000006988847032E34D0082E32D06FF001009E
:1018100009B0BDE8F08F761C032E01D0082EE0D170
:10182000601CCAF80000DCE7A9690698641C8847B8
:101830007F1E2AD420F02000412826D1A9690698CD
:10184000641C88477F1E20D420F020004E281CD125
:10185000A9690698641C88477F1E48F4002849F44B
:101860008009CAF8004001D4282806D0E969069802
:1018700088475FEACB7012D022E0A9690698641C01
:1018800088477F1E01D4002803DAE9690698884753
:10189000BCE72928F1D1641CCAF80040E9E71BF035
:1018A000240F07D028680499031D2B600068C0E945
:1018B000001805E02868021D2A600068C0F8009042
:1018C0002046A5E70000F07F494E46494E4954594D
:1018D0000000000001491820ABBEFEE72600020010
:1018E000B2F120030AD5C2F1200301FA02F120FA75
:1018F00003F300FA02F041EA0301704700FA03F132
:101900004FF0000070473A2800D2303820F0200213
:10191000412A01D3A2F13700884201D34FF0FF30B2
:10192000704770475FEA400C08BF91F0000F4FEA24
:101930008C234FEAC12243EA51514FEA1C5018BF91
:1019400000F5F0404FEA300018BF41F000415FEA77
:101950006C5C00F02980BCF1FF3F08BF40F0804084
:101960007047130C06BF12044FF0100C4FF0000C20
:10197000130E04BF12020CF1080C130F04BF120166
:101980000CF1040C930F04BF92000CF1020CD30F66
:1019900004BF52000CF1010C11464FF00002A0F1FF
:1019A0001F00A0EB0C00704711F0004F08BF7047FC
:1019B00031F000413FF4D5AF0B0C06BF09044FF0E6
:1019C000100C4FF0000C0B0E04BF09020CF1080CB8
:1019D0000B0F04BF09010CF1040C8B0F04BF89002D
:1019E0000CF1020CCB0F04BF49000CF1010CCCF13F
:1019F0002003A0EB0C0022FA03F302FA0CF241EAF6
:101A0000030100F10100704720F07F4C80EA0300E1
:101A100023F07F47ACEB070303F57C5300F0004055
:101A200003F1FF032DE980494FEA154B09B44FEA52
:101A3000144325EA0B4E24EA03480FF2042606EB72
:101A4000132749083E785FEA320203FB0667C7F5B1
:101A5000000707FB06F64FEA54374FEAD64606F171
:101A6000020607FB066CCCF1005C4FEA1C472CEA2F
:101A7000074C07FB06F40CFB06F504EB15464FEA92
:101A8000961634BF00204FF000404FEAD13706FBD6
:101A900007FC4FEA1C4C0CFB0BF7D21B03FB0CF7AB
:101AA00061EB07010CFB0EF7B0EB074072EB17423E
:101AB0000CFB08F734BFA2EB0742B2EB074261EB25
:101AC00017414FEA0C444FEA910706FB07FC4FEA27
:101AD0001C4C0CFB0BF7B0EBC74072EB573203FB0F
:101AE0000CF734BFA2EBC742B2EBC74261EB5731F0
:101AF0000CFB0EF7B0EBC70072EB57720CFB08F74C
:101B000034BFA2EBC702B2EBC70261EB5771039F70
:101B10004FEA816141EA921104EBCC044FEAD137DC
:101B20004FEA826206FB07FC42EA90124FEA8060AD
:101B30004FEA1C4C0CFB0BF7D21B03FB0CF761EBC1
:101B400007010CFB0EF7B0EB074072EB17420CFBE2
:101B500008F734BFA2EB0742B2EB074261EB174133
:101B60004FEA8C554FEA910704EB9C2406FB07FCD7
:101B70004FEA1C4C0CFB0BF7B0EBC74072EB573233
:101B800003FB0CF734BFA2EBC742B2EBC74261EBD9
:101B900057310CFB0EF7B0EBC70072EB57720CFB22
:101BA00008F734BFA2EBC702B2EBC70261EB577173
:101BB00015EB4C254FEA816141EA92114FEA8262AE
:101BC0004FEAD13742EA901206FB07FC44F10004C9
:101BD0004FEA80604FEA1C4C0CFB0BF7D21B03FB57
:101BE0000CF761EB07010CFB0EF7B0EB074072EB53
:101BF00017420CFB08F734BFA2EB0742B2EB0742D7
:101C000061EB174115EB1C154FEA813141EA924116
:101C10004FEA823242EA90424FEA80304FEA0C7635
:101C200044F1000448EA03434EEA0B484FF0000E2B
:101C3000B2EB080C71EB030724BF624639464EEB4A
:101C40000E0E4FF0000B0018524149414BEB0B0BAD
:101C5000B2EB080C71EB03077BF1000B24BF62466B
:101C600039464EEB0E0E4FF0000B00185241494121
:101C70004BEB0B0BB2EB080C71EB03077BF1000B8A
:101C800024BF624639464EEB0E0E51EA020718BFDA
:101C900046F0010616EB0E7655F1000254F10001F4
:101CA00003D5BDE88901BDE80088BDE88901BDE82C
:101CB0000048B619524141EB0101A3F101037047FD
:101CC00080807F7E7D7C7B7A797877767675747379
:101CD000727171706F6E6E6D6C6C6B6A6A69686838
:101CE000676666656464636362616160605F5F5ECE
:101CF0005E5D5D5C5C5B5B5A5A5959585857575644
:101D000056555555545453535252525151505050A8
:101D10004F4F4F4E4E4D4D4D4C4C4C4B4B4B4A4AFA
:101D20004A4949494848484747474746464645453E
:101D30004544444444434343434242424241414177
:101D400046EA0646A3F570534FEA164646EA42565F
:101D50004FEAD22242EA415210B54FEAD121A3F113
:101D6000010300F02FF820F0004000F1020C00F019
:101D7000004701EB00501146BCF5006F40EA070038
:101D800000D210BDBAF1000F0AD01CB503B44FF059
:101D900004004FF004014FF000000FBCBDE81040FC
:101DA0004FF00001BBF1010FB9BF04484FF0FF3104
:101DB0000348002140EA070010BD00BFFFFFEF7F8E
:101DC0000000F07F002B9C4630D477002BD01CB550
:101DD0004FEA370703B44FF010004FF01001BAF18B
:101DE000000F06D0BCF1000FDCBF40F0080040F04F
:101DF00008014FF000000FBCBDE810400BF1010BD3
:101E0000BBF1010F08BF5FEA170722BF12F1010201
:101E100011F101014FF0004143F1000300F00040D7
:101E200043EA00007047F9D35708D0E746EA064670
:101E300013F1400F4FEA16461FDD13F1200FDFBFED
:101E400016430A46002120335B42BED0C3F120076F
:101E500046EA064602FA07F74FEA164646EA07063A
:101E6000C3F1200722FA03F201FA07F721FA03F17E
:101E70004FF0000342EA0702A7E746EA020646EAF5
:101E800006464FEA164646EA0106BCBF46EA064643
:101E9000360C4FF000034FF000024FF0000194E7C2
:101EA0002DE9804C9A46934670B491E8380007C8F3
:101EB00031EA400C48BF34EA430C03D5FFF7A4FDD8
:101EC000FFF780FFF0BCBDE8008C2DE9804C9A46FE
:101ED000934670B491E8380007C831EA400C48BF17
:101EE00034EA430C03D5FFF78FFDFFF729FFF0BC61
:101EF000BDE8008C2DE9804C9A46934670B491E879
:101F0000380007C810F0804F08BF13F0804F03D18E
:101F100000F01AF8FFF756FFF0BCBDE8008C2DE981
:101F2000804C9A46934670B491E8380007C810F088
:101F3000804F08BF13F0804F03D100F005F8FFF782
:101F4000FFFEF0BCBDE8008C20F07F4780EA030074
:101F500023F07F4C07EB0C03A3F57C5300F000400B
:101F6000A3F1FE0392F0000F00F0B38095F0000F94
:101F700000F077802DE901494FEA11404FEA1446FD
:101F800021EA004800FB06FC24EA064708FB06F6A7
:101F900007FB08F800FB07F718EB06484CEB164C5C
:101FA0004FEA124B18EB07484FEA15464CEB174027
:101FB00022EA0B4E0BFB06FC25EA06470EFB06F653
:101FC00007FB0EFE0BFB07F71EEB064E4CEB164C09
:101FD0004FF000061EEB074E4CEB174B18EB0B08AF
:101FE00040F1000018EB0E0B58EB000840F1000028
:101FF0008F1A4FF000013CBFC943661B14BFB5EBFD
:10200000040C00213CBFC943F61B4FEA17444EEABB
:102010008E0E27EA04454FEA1C4704FB07622CEAB0
:10202000074C05FB07F70CFB05F604FB0CFC16EB55
:10203000074642EB174216EB0C4642EB1C421BEBE9
:10204000060658EB0202414146EA9E0601D5BDE86C
:102050000189B619524141EB0101A3F10103BDE829
:1020600001894FEA14454FEA114724EA054621EA5F
:10207000074C05FB07F406FB07F70CFB06F105FB15
:102080000CFC11EB074144EB17444FEA124711EBEC
:102090000C4144EB1C4422EA074C05FB07F206FB0B
:1020A00007F70CFB06F605FB0CFC16EB074642EBAC
:1020B000174216EB0C4642EB1C456A1854F100011E
:1020C00048BF7047B619524141EB0101A3F101032A
:1020D000704795F0000F37D04FEA11424FEA14478E
:1020E00021EA024624EA074C02FB07F106FB07F748
:1020F0000CFB06F402FB0CFC14EB074441EB17410C
:102100004FEA154714EB0C4441EB1C4125EA074C00
:1021100002FB07F506FB07F70CFB06F602FB0CFCBF
:1021200016EB074645EB174516EB0C4645EB1C42F4
:10213000121951F1000148BF7047B619524141EBE5
:102140000101A3F1010370474FEA14454FEA11471B
:1021500024EA054621EA074C05FB07F106FB07F7D1
:102160000CFB06F24FF0000605FB0CFC12EB0742DD
:1021700041EB174112EB0C4251EB1C4148BF704739
:10218000921841EB0101A3F10103704721B182686C
:1021900042F00102826003E0826822F00102826064
:1021A0007047000010B504461248844208D101214E
:1021B000401501F099FD0021601501F095FD17E033
:1021C0000D48844208D10121001501F08DFD002148
:1021D000201501F089FD0BE00848844208D1012157
:1021E000C80301F081FD00214FF4004001F07CFDA7
:1021F00010BD00000024014000280140003C0140C7
:10220000014600208A6802F004020AB1012000E0C1
:10221000002070470146C86C80B27047024600201B
:1022200013680B400BB1012000E00020704701460D
:1022300000208A6802F008020AB1012000E00020B4
:102240007047000030B502460020002350680F4C54
:1022500020400D790C6844EA0524204350609068C2
:102260000B4C2040D1E902542C434D7944EA4504FB
:1022700020439060D06A20F470000C7C641EE4B2AD
:10228000234340EA0350D06230BD0000FFFEF0FF60
:10229000FDF7F1FFF0B504460D4600200021092DA1
:1022A00011DDE068A5F10A0606EB4607072606FAE7
:1022B00007F18843A5F10A0606EB460603FA06F184
:1022C0000843E0600CE0206905EB4507072606FAA5
:1022D00007F1884305EB450603FA06F10843206140
:1022E000072A0FDA606B561E06EB86071F2606FAD2
:1022F00007F18843561E06EB860605FA06F10843E9
:10230000606322E00D2A0FDA206BD61F06EB8607EA
:102310001F2606FA07F18843D61F06EB860605FA44
:1023200006F10843206310E0E06AA2F10D0606EB17
:1023300086071F2606FA07F18843A2F10D0606EB71
:10234000860605FA06F10843E062F0BD816841F0B7
:1023500008018160704721B1826842F4A002826066
:1023600003E0826822F4A00282607047816841F035
:10237000040181607047000000B587B001214FF46F
:10238000017001F0A1FC4FF4004001F071FC01204C
:10239000ADF8040000208DF8070001A9174800F0EF
:1023A000C5FB1748FFF7FEFE002002908DF80C00D9
:1023B0008DF80D004FF4602004900020059001205E
:1023C0008DF8180002A90E48FFF73CFF01210C48C8
:1023D000FFF7DCFE0A48FFF7B9FF00BF0848FFF728
:1023E00026FF0028FAD10648FFF7C0FF00BF0448C7
:1023F000FFF706FF0028FAD107B000BD0008014032
:10240000002401402DE9F0412D480068012810D139
:1024100000202C4908602C48006806F0FDFA0646AA
:1024200000222A4B06F04CFB044606F073F82549BF
:10243000086023480068022812D10020244908605F
:1024400024490968A1F1400006F0E6FA0646002298
:10245000214B06F035FB044606F05CF81C49086089
:102460001E49B1F9040007F007F81D4908601D492D
:10247000B1F9040007F000F81B49086000211B486F
:10248000006807F057F91A4908601649B1F90000C9
:1024900006F0F2FF06460E480168304607F04CF899
:1024A0000446084801681248006807F045F80546E8
:1024B000214606F041FE0F490860BDE8F0810000AA
:1024C0006C010020FC0000205C0100200080FB3F2C
:1024D00000010020600100200000C43F62000020D5
:1024E0007C0100205C0000208001002050000020C2
:1024F000EC000020E000002000BFFEE72DE9FC5FBB
:10250000A3480068012878D1A248D0F800B0A248BA
:1025100000680190A148B0F90290A148B0F900A06C
:10252000A0480468484606F0A7FF06464FF08D41D4
:1025300006F070FE05469C4906F0FEFF9B490860C8
:10254000504606F099FF0646994907F0F3F805460C
:10255000984906F05FFE98490860584606F0C0FDAD
:102560000746964A964B06F0C3F8054605F0D2FF9B
:102570008346019806F0B4FD0546904A904B06F05C
:10258000B7F8074605F0C6FF019050218D48FEF7C9
:102590002BF88C488CA1096801600A218B48FEF752
:1025A00023F88B4800210160416001810A2189489C
:1025B000FEF71AF8884800210160416001810A2174
:1025C0008648FEF711F886480021016041600181CC
:1025D0008449584606F07CFF10D88349584607F0D6
:1025E00077F80BD8584606F07BFD05462A460B4681
:1025F0007EA17648FDF73EFE02E0C7E0BDE8FC9F05
:102600007849019806F064FF0FD87749019807F0E0
:102610005FF80AD8019806F063FD05462A460B4686
:1026200072A16B48FDF726FE00E0E7E771495F48BD
:10263000006807F04DF811D26F495C48006806F059
:1026400047FF0BD25948006806F04AFD05462A4666
:102650000B4666A15F48FDF70DFE00E0CEE7674937
:102660005548006807F034F811D2654952480068AF
:1026700006F02EFF0BD25048006806F031FD0546EB
:102680002A460B4659A15448FDF7F4FD00E0B5E792
:102690000021204607F01CF80FD85A49204606F0C2
:1026A00017FF0AD2204606F01BFD05462A460B46B8
:1026B0004EA14A48FDF7DEFD00E09FE7002000F054
:1026C0005DFB0090009806F0EFFE07464E4906F0CD
:1026D00033FF06464FF08B4106F09CFD05464B4903
:1026E00007F028F84A49086000214948006806F0C8
:1026F000EFFF11D840494648006806F0E9FE0BD2CA
:102700004348006806F0ECFC05462A460B4637A114
:102710003348FDF7AFFD00E070E72C492948FDF78D
:10272000B6FE3CA12748FDF7B2FE29492548FDF732
:10273000AEFE39A12348FDF7AAFE26492148FDF740
:10274000A6FE36A11F48FDF7A2FE23491D48FDF74E
:102750009EFE33A11B48FDF79AFE20491948FDF75C
:1027600096FE31A11748FDF792FE1D491548FDF769
:102770008EFE2EA11348FDF78AFE50212C48FDF74E
:1027800033FF50220F492A48FDF7D2FE00BF35E73C
:1027900070010020E4000020E8000020620000201A
:1027A0005C00002040010020CDCC1C417C010020B9
:1027B0009A190043000003438001002048E17A1485
:1027C000AE470F40CC020020244C5600E40300200A
:1027D000EE030020F8030020020400200C04002077
:1027E0001604002000007A4400007AC425332E32FB
:1027F000660000000000A0C10000A04100803BC5B1
:1028000000803B4500401C46CDCC5441CDCC4C3ED5
:10281000D00000202C5256002C4143002C47590078
:102820002C435342000000002C56540023000000AB
:102830001C03002010B528480068072846D2DFE8AE
:1028400000F0040E26181F303B00002023490860CA
:102850002349086023490860234908603AE00020C2
:102860002049086021481D49086001201E49086070
:1028700030E01F481B49086001201B49086029E01F
:102880001C481849086001201749086022E0002010
:10289000144908601848114908600120124908606D
:1028A00018E016480068404206F0E6FD0D49086051
:1028B00001200D4908600DE01048006806F0DCFDBD
:1028C0000849086001200849086003E00020034926
:1028D000086000BF00BF10BD700000204401002050
:1028E0003C01002048010020540100200000484421
:1028F000000096C300009643000048C48C010020ED
:1029000000201649088016490880164908601649B3
:10291000086016490860164908601649086016499B
:10292000086016490860164908601649086016498B
:10293000086016490860164908601649086016497B
:10294000086016490860164908601649087016495B
:102950000870164908701649086070471201002077
:1029600010010020200100201C010020280100206F
:10297000240100202C010020EC0000204801002050
:10298000D4000020E0000020E8000020E400002047
:102990004401002088010020840100205001002013
:1029A0004C010020C7000020C8000020C900002002
:1029B0003C0100207047000010B5022000F038F8FC
:1029C00048B30021144802F039FA0121124801F0FD
:1029D000EDFF01201149086012E00F4802F007F9ED
:1029E0000A2807DB00210C4801F0E0FF00200B491A
:1029F000086005E002210A4800F06CF90749086008
:102A0000064800680028E8D10021034801F0CEFF05
:102A1000022000F007F810BD002C01402C0000201F
:102A2000000C014001490860704700001404014097
:102A3000014600200022074B1B6803EA0102054BF8
:102A400014331B680B4013B10AB1012000E00020D1
:102A50007047000000040140002123498279002AC8
:102A60003AD00A46126803689A430B461A600A1D58
:102A7000126803689A430B1D1A60027911440A68B0
:102A800003681A430A60184A0832126803689A43B6
:102A9000154B08331A601A1D126803689A43124BCB
:102AA0000C331A604279102A0ED11A1F126803687B
:102AB0001A430D4B08331A601A1D126803681A4333
:102AC000094B0C331A600DE00749427911440A683A
:102AD00003681A430A6005E0027911440A68036832
:102AE0009A430A60704700000004014030B500229C
:102AF0008B071C0F0F2303FA04F20B4B8C1053F8B7
:102B000024309343084C8D1044F8253023468C1014
:102B100053F824308C07240F00FA04F42343024CAA
:102B20008D1044F8253030BD080001402DE9F041FA
:102B3000024600250026002000230024002791F8EB
:102B400003C00CF00F0591F803C00CF0100CBCF1A1
:102B5000000F03D091F802C04CEA050591F800C0BF
:102B6000BCF1000F31D0146800202BE04FF0010CB5
:102B70000CFA00F3B1F800C00CEA03069E4220D123
:102B800083004FF00F0C0CFA03F7BC4305FA03FC6B
:102B90004CEA040491F803C0BCF1280F06D14FF0B1
:102BA000010C0CFA00FCC2F814C00AE091F803C052
:102BB000BCF1480F05D14FF0010C0CFA00FCC2F833
:102BC00010C0401C0828D1D31460B1F800C0BCF17B
:102BD000FF0F34DD546800202EE000F1080C4FF0A8
:102BE000010808FA0CF3B1F800C00CEA03069E4293
:102BF00021D183004FF00F0C0CFA03F7BC4305FA08
:102C000003FC4CEA040491F803C0BCF1280F05D181
:102C100000F1080C08FA0CF8C2F8148091F803C00F
:102C2000BCF1480F07D100F1080C4FF0010808FA79
:102C30000CF8C2F81080401C0828CED35460BDE8C0
:102C4000F0810000F0B50A46002300240021002591
:102C500000F00046B6F1004F02D11D4EF16901E0CF
:102C60001B4E7168C0F3034583B200F44016B6F5FD
:102C7000401F08D121F07061154E766826F070660D
:102C8000134F7E6012E000F48016B6F5801F06D167
:102C9000032606FA05F4A14341F0706106E0460DF3
:102CA000360103FA06F6B14341F0706122B1460DD8
:102CB000360103FA06F6314300F00046B6F1004F44
:102CC00002D1034EF16101E0014E7160F0BD0000E0
:102CD000000001400246002093680B400BB1012028
:102CE00000E00020704741617047016170474FF676
:102CF000FF710180022181700421C17070470000C2
:102D000070B5164801F073FF0446154801F06FFFD7
:102D10000546144804601448056000210F4802F07D
:102D20008DF800210E4802F089F820B20F49088082
:102D3000684200B20E4908800E4800680B49B1F99C
:102D4000001008440B4908600B4800680849B1F9B5
:102D5000001008440849086070BD000000040040ED
:102D60000008004030010020340100201001002044
:102D7000120100201C0100202001002010B5044693
:102D80000723012221460948FFF784FA0121074859
:102D9000FFF7E1FA00BF02210448FFF73FFA0028DD
:102DA000F9D00248FFF736FA10BD000000240140B8
:102DB00000BFFEE710B54FF480700C49086000F0CA
:102DC00007F94FF400700949086000F001F94FF469
:102DD00080700649091F086000F0FAF84FF480700F
:102DE0000249086000F0F4F810BD0000140C014026
:102DF00010B54FF480700C49086000F0E9F84FF40A
:102E000000700949091F086000F0E2F84FF4807073
:102E10000549091F086000F0DBF84FF48070024993
:102E2000086000F0D5F810BD140C014070B50825FD
:102E30000024A8011249086016E06006040E4FF451
:102E400080700F49091D086000F0C2F84FF48070CF
:102E50000B49086000F0BCF809480838006800F425
:102E6000007008B144F00104281EA5F10101CDB2A3
:102E7000E3D14FF480700249091D0860204670BDFF
:102E8000100C014070B5044608251DE04FF4807019
:102E90001249086000F09CF804F0800028B14FF45B
:102EA00000700E49091F086003E04FF400700B49E1
:102EB00008606006040E00F08BF84FF4807007493C
:102EC000091F086000F084F8281EA5F10101CDB2A9
:102ED000DCD14FF480700149086070BD140C0140D2
:102EE00010B54FF40070154908604010086000F0FC
:102EF0006FF812480838006808B9012000E0002087
:102F000000F4007008B1002010BD4FF400700B49B0
:102F1000091D086000F05CF808480838006800F4F3
:102F2000007008B10020EFE74FF400700349091D5D
:102F3000086000F04DF80120E6E70000100C0140A9
:102F400010B54FF480700C49086000F041F84FF460
:102F500000700949086000F03BF84FF480700649A2
:102F6000091F086000F034F84FF400700249091F8F
:102F7000086000F02DF810BD140C014010B54FF49E
:102F800080701249086000F023F84FF400700F4978
:102F9000091F086000F01CF84FF480700B49091FEE
:102FA000086000F015F809480C38006800F400705B
:102FB00028B14FF4807005490860002010BD4FF41F
:102FC0008070024908600120F8E70000140C0140FD
:102FD00008B50720009002E00098401E009000987D
:102FE0000028F9D108BD000008B50121082000F033
:102FF0006BFE4FF47040ADF8000010208DF8030018
:1030000003208DF8020069460448FFF78FFD4FF456
:1030100070410248FFF769FE08BD0000000C014046
:1030200070B5002404F0B2FA0446002C60D134A03C
:1030300000F0CDFB782005F0B9F818B939A000F000
:10304000C6FB02E03FA000F0C2FB782004F08CF940
:1030500018B947A000F0BBFB02E04EA000F0B7FBA0
:10306000642005F055F818B956A000F0B0FB02E056
:103070005EA000F0ACFB03F071F818B964A000F09A
:10308000A6FB02E06FA000F0A2FB7D4804F0BAF8B6
:10309000054603F0BDFA18B97AA000F098FB02E0EB
:1030A00082A000F094FB40F2731002F0FFFE18B90A
:1030B0008AA000F08CFB02E091A000F088FB642065
:1030C00003F0D6F918B99AA000F081FB02E0A1A0A4
:1030D00000F07DFB05F012F9012004F015FF18B98E
:1030E000A7A000F074FB0AE0AEA000F070FB06E0C1
:1030F0004FF40051B648FFF7F6FD00BFFEE770BD84
:103100006D707520696E697469616C697A61746942
:103110006F6E20636F6D706C6574652E2E2E2E2E73
:103120002E0A20006D70755F7365745F73656E7332
:103130006F7220636F6D706C657465202E2E2E2E5D
:103140002E2E0A006D70755F7365745F73656E7304
:103150006F7220636F6D65206163726F737320659A
:1031600072726F72202E2E2E2E2E2E0A000000005C
:103170006D70755F636F6E6669677572655F6669AE
:10318000666F20636F6D706C657465202E2E2E2E19
:103190002E2E0A006D70755F636F6E6669677572BB
:1031A000655F6669666F20636F6D65206163726F2E
:1031B0007373206572726F72202E2E2E2E2E2E0AA1
:1031C000000000006D70755F7365745F73616D70F2
:1031D0006C655F7261746520636F6D706C6574659A
:1031E000202E2E2E2E2E2E0A000000006D70755FF0
:1031F0007365745F73616D706C655F726174652077
:103200006572726F72202E2E2E2E2E2E0A00000056
:10321000646D705F6C6F61645F6D6F74696F6E5F1A
:103220006472697665725F6669726D776172652036
:10323000636F6D706C657465202E2E2E2E2E2E0AF7
:1032400000000000646D705F6C6F61645F6D6F748F
:10325000696F6E5F6472697665725F6669726D77B9
:1032600061726520636F6D65206163726F73732097
:103270006572726F72202E2E2E2E2E2E0A000000E6
:1032800030000020646D705F7365745F6F726965F4
:103290006E746174696F6E20636F6D706C657465B8
:1032A000202E2E2E2E2E2E0A00000000646D705F40
:1032B0007365745F6F7269656E746174696F6E2097
:1032C000636F6D65206163726F7373206572726FD7
:1032D00072202E2E2E2E2E2E0A000000646D705F9E
:1032E000656E61626C655F666561747572652063A9
:1032F0006F6D706C657465202E2E2E2E2E2E0A009A
:10330000646D705F656E61626C655F666561747542
:10331000726520636F6D65206163726F73732065E2
:1033200072726F72202E2E2E2E2E2E0A000000009A
:10333000646D705F7365745F6669666F5F726174F8
:103340006520636F6D706C657465202E2E2E2E2E99
:103350002E0A0000646D705F7365745F6669666F46
:103360005F7261746520636F6D65206163726F7356
:1033700073206572726F72202E2E2E2E2E2E0A0052
:103380006D70755F7365745F646D705F7374617485
:103390006520636F6D706C657465202E2E2E2E2E49
:1033A0002E0A00006D70755F7365745F646D705FE9
:1033B000737461746520636F6D65206163726F73F0
:1033C00073206572726F72202E2E2E2E2E2E0A0002
:1033D000001001402DE9F04F89B08C488C498D4B8D
:1033E0008D4ACDE900108D498D4802F0C3FE884812
:1033F000008800F4807000287DD08749086806F0B6
:103400003BF804464FF09D4105F004FF85490860F4
:103410008149486806F030F804464FF09D4105F0B8
:10342000F9FE814908607C49886806F025F8044661
:103430004FF09D4105F0EEFE7C4908607649C86872
:1034400006F01AF804464FF09D4105F0E3FE784976
:103450000860744801684FF0804006F06DF80690EF
:1034600072480168069806F067F882466E4801685F
:103470004FF0404006F060F806906D4801680698ED
:1034800006F05AF88346514605F056FE079005F0BF
:1034900027FE064602F00AF980464FF06632654B79
:1034A00005F00EFB044605F035F8634908605F48F7
:1034B00001684FF0804006F03FF803905B480168D8
:1034C000039806F039F88246574801684FF04040AB
:1034D00006F032F8039054480168039806F02CF87F
:1034E0008346514606F026F981464FF07E5105F09D
:1034F00023FE044600E086E005F0F2FDCDE904017C
:10350000484801684FF0804006F016F88346464868
:103510000168584606F010F88146444801684FF0AB
:10352000804006F009F8834641480168584606F095
:1035300003F88246494605F0FFFD044605F0D0FD3C
:103540000746DDE9042302F0F9FA4FF06632394B01
:10355000CDE9060105F0B4FA054604F0DBFF374972
:10356000086033480168006805F0E6FF03902F48C3
:103570000168006805F0E0FF02902B4801680068D0
:1035800005F0DAFF834627480168006805F0D4FF9C
:103590005946019005F0D0FD8246029906F0CAF81E
:1035A0008146039906F0C6F8044605F099FDCDE979
:1035B00004011F4801681B48006805F0BDFF8246F2
:1035C0001A4801681848006805F0B6FF834651465E
:1035D00005F0B2FD81464FF0804105F0ADFF044695
:1035E00005F07EFD0746DDE9042302F0A7FA4FF05F
:1035F0006632104BCDE9060105F062FA054604F08B
:1036000089FF0F49086009B0BDE8F08F6A0000200B
:1036100068000020580000201C02002062000020EA
:103620005C0000203C0000204000002044000020FE
:103630004800002066A64C404C00002050000020AE
:103640005400002000BFFEE770B52C4801682C48EC
:10365000006805F071FD04462A480168204605F01F
:103660006BFD29490860254801682548006805F078
:1036700063FD044623480168204606F05BF82349B1
:1036800008602148006805F0BBFE00B240F6B83182
:10369000884202DD1E481C4908601B48006805F08E
:1036A000AFFE00B21B49884202DA1B481649086087
:1036B0001648006805F0A4FE00B240F6B831884212
:1036C00002DD1348114908601048006805F098FEB3
:1036D00000B21049884202DA0F480C4908600B48D2
:1036E000006805F08DFE04B20748006805F088FE0A
:1036F00005B22146284600F0F5FB70BDDC00002035
:10370000E000002048010020E4000020E800002044
:1037100000803B4548F4FFFF00803BC5704708B57B
:103720004FF4806000F048F827208DF80000042056
:103730008DF8010001208DF802008DF80300684625
:1037400000F002F808BD000070B5002100230F2230
:10375000C47804B3154C246804F4E064C4F5E06450
:10376000210AC1F10403CA40447804FA03F18478C1
:103770001440214309010E4C0678A155047804F049
:103780001F050124AC4005786D11AD0005F1E02561
:10379000C5F8004109E0047804F01F050124AC409D
:1037A000044D0678761145F8264070BD0CED00E01A
:1037B00000E400E080E100E002490143024A1160B8
:1037C000704700000000FA050CED00E0704770B58E
:1037D00005462C4603E0207801F034FC641C207878
:1037E0000028F8D170BD0000F0B589B09E4840783F
:1037F0003038052827D2DFE800F01F030A1118002F
:1038000001209A4908609A4801F0D2FB1FE002208B
:1038100096490860964801F0CBFB18E003209349D5
:103820000860934801F0C4FB11E004208F49086050
:103830008F4801F0BDFB0AE000208C4908608C48ED
:1038400001F0B6FB03E000208849086000BF00BF1C
:103850008548FCF7FDFD15280BD20020854908702E
:1038600050218148FCF7C0FE83A001F0A1FB09B004
:10387000F0BD7D48C078312805D105207B4908601E
:103880007B4801F095FB7848C078322805D10620A6
:1038900076490860764801F08BFB734840793128FF
:1038A00002D100F01FF908E06F484079322804D1B6
:1038B00000F094FA75A001F07BFB6B48C0793128C9
:1038C00006D101207349086070A001F071FB09E086
:1038D0006548C079322805D100206E4908606BA088
:1038E00001F066FB6048407A312857D1142104A8C2
:1038F000FCF77AFE0020029003900090019066A1F0
:10390000594800F0F5FC0546681C00B9AFE763486C
:103910000068421B5448411904A8FCF7C4FD60A18B
:1039200004A800F0E5FC0446601C00B99FE7A21E55
:103930000DF1120102A8FCF7B6FD02A802F0CCF9C5
:10394000064604F0E7FD57490860142104A8FCF777
:103950004BFE2819514B1B681A1A4348284420442F
:10396000411C04A8FCF79FFD4DA104A800F0C0FC79
:103970000446601C00B97AE7A21E0DF112016846E8
:10398000FCF791FD684602F0A7F9064604F0C2FD77
:10399000454908603DA001F00BFB00BF3248C07AEA
:1039A000312857D1142104A8FCF71EFE00200290F4
:1039B0000390009001903DA12B4800F099FC054632
:1039C000681C00B953E735480068421B2648411976
:1039D00004A8FCF768FD32A104A800F089FC0446A5
:1039E000601C00B943E7A21E0DF1120102A8FCF70A
:1039F0005AFD02A802F070F9064604F08BFD2C492E
:103A00000860142104A8FCF7EFFD2819234B1B685C
:103A10001A1A154828442044411C04A8FCF743FD09
:103A200024A104A800F064FC0446601C00B91EE751
:103A3000A21E0DF112016846FCF735FD684602F042
:103A40004BF9064604F066FD1B4908600FA001F023
:103A5000AFFA00BF00200749087050210248FCF768
:103A6000C3FD00BF03E700007C02002070000020BF
:103A7000740000206C00002024526563656976653F
:103A80005061636B4572726F72230000244F4B23A9
:103A9000000000007001002041500000E001002003
:103AA0002C000000FC000020000100205650000007
:103AB00004010020230000000801002010B5064882
:103AC0000268521C05490648FCF732FD50210348A4
:103AD000FCF78AFD10BD0000D80100202C02002058
:103AE0007C02002070B532214D48FCF75BFD4C484C
:103AF0004CA10968016000214B48006805F0E8FD11
:103B000011D84A494848006805F0E2FC0BD84648FD
:103B1000006805F0E5FA044622460B4644A14648F3
:103B2000FCF7A8FB03E045A001F042FA70BD0021BC
:103B30004648006805F0CCFD11D83C494348006870
:103B400005F0C6FC0BD84148006805F0C9FA0446E8
:103B500022460B4636A13E48FCF78CFB03E037A01B
:103B600001F026FAE2E700213A48006805F0B0FDCE
:103B700011D82E493748006805F0AAFC0BD8354803
:103B8000006805F0ADFA044622460B4628A13248EB
:103B9000FCF770FB03E029A001F00AFAC6E7002158
:103BA0002E48006805F094FD11D820492B48006884
:103BB00005F08EFC0BD82948006805F091FA044600
:103BC00022460B461AA12648FCF754FB03E01BA033
:103BD00001F0EEF9AAE718491148FCF758FC21A1B9
:103BE0000F48FCF754FC1A490D48FCF750FC1EA185
:103BF0000B48FCF74CFC18490948FCF748FC1BA192
:103C00000748FCF744FC16490548FCF740FC0EA1A8
:103C10000348FCF73CFC024801F0CAF900BF85E705
:103C20009500002024415000FC0000200000C84204
:103C300025332E3266000000BC0300202447657443
:103C40005049444572726F72230000000001002049
:103C5000C603002004010020D0030020080100203A
:103C6000DA0300202C4144002C5650002C56490009
:103C700001460020034A506820F440400843506049
:103C8000704700000010024029B1064AD269024381
:103C9000044BDA6104E0034AD2698243014BDA61E2
:103CA000704700000010024029B1064A1269024321
:103CB000044B1A6104E0034A12698243014B1A6102
:103CC000704700000010024029B1064A9269024381
:103CD000044B9A6104E0034A92698243014B9A6162
:103CE000704700000010024029B1064AD268024322
:103CF000044BDA6004E0034AD2688243014BDA6085
:103D0000704700000010024030B50021002200245E
:103D100000232D4D6D6805F00C0121B1042905D05B
:103D2000082923D105E0294D056022E0274D0560D3
:103D30001FE0254D6D6805F47012234D6D6805F484
:103D40008034022505EB92421CB9214D5543056094
:103D50000BE01D4D6D6805F400351DB11C4D55433C
:103D6000056002E0194D5543056002E0174D0560FE
:103D700000BF00BF144D6D6805F0F0010909154D35
:103D80006B5C0568DD4045600F4D6D6805F4E061D2
:103D9000090A104D6B5C4568DD4085600A4D6D6811
:103DA00005F46051C90A0B4D6B5C4568DD40C56088
:103DB000054D6D6805F44041890B074D6B5CC56886
:103DC000B5FBF3F5056130BD0010024000127A002A
:103DD00000093D00E4010020F40100202DE9F0413C
:103DE0002A48006805F07CF904462948D0E90063B8
:103DF0003246204604F0D4FD07D02548D0E9002102
:103E0000104604F087FB214908602248006805F04D
:103E100067F904461E48D0E902633246204604F0A2
:103E2000BFFD07D01A49D1E90221104604F072FB08
:103E3000184908601848006805F052F9044614480B
:103E4000D0E904633246204604F0AAFD07D01048AA
:103E5000D0E90421104604F05DFB0F4908600F48CB
:103E6000006805F03DF904460948D0E9066332468A
:103E7000204604F095FD07D00548D0E906211046FC
:103E800004F048FB05490860BDE8F081FC00002013
:103E900070A5000800010020040100200801002096
:103EA0007047000010B50C480068401E0A490860C1
:103EB0000A480068012807D10846006820B9FEF7C3
:103EC0001DFB074801F074F80348006818B941F277
:103ED00088300149086010BD740100207001002085
:103EE0001C0300202DE9F04104460D46002C0CDA9D
:103EF0004FF480414A48FEF7F8FE4FF4004148482D
:103F0000FEF7F1FE604204B20AE04FF4004144487B
:103F1000FEF7EBFE4FF480414148FEF7E4FE00BFA0
:103F2000002D0CDA4FF400513D48FEF7DEFE4FF451
:103F300080513B48FEF7D7FE684205B20AE04FF4D5
:103F400080513748FEF7D1FE4FF400513448FEF758
:103F5000CAFE00BFAFB2A6B231464FF0804000F0BB
:103F600068FF39464FF0804000F065FF2D492E482C
:103F7000006805F0ADFB23D32C492B48006805F001
:103F8000A7FA02D24FF0010801E04FF0000800212B
:103F90002748006805F000FA01D1012000E0002068
:103FA00008EA000800212348006805F0F5F901D16E
:103FB000012000E0002008EA0008B8F1000F0DD051
:103FC00000214FF0804000F034FF00214FF080408E
:103FD00000F031FF01201849086002E00020164976
:103FE000086016491648006805F072FB05D31549AC
:103FF0001348006805F06CFA0DD200214FF08040A4
:1040000000F017FF00214FF0804000F014FF012066
:104010000949086002E0002007490860BDE8F08116
:10402000000C0140000020414C000020000020C195
:10403000500100204C0100203801002000004842BF
:10404000EC000020000048C210B500F001F810BDDF
:104050000CB50020019000903348006840F4803097
:104060003149086000BF3048006800F4003000901B
:104070000198401C0190009818B90198B0F5A06F04
:10408000F1D12948006800F4003010B101200090FF
:1040900001E0002000900098012843D123480068E7
:1040A00040F01000214908600846006820F0030035
:1040B00008600846006840F0020008601A4840683E
:1040C000194948600846406848600846406840F41E
:1040D000806048600846406820F47C1048600846CC
:1040E000406840F4E81048600846006840F080707E
:1040F000086000BF0C48006800F000700028F9D08C
:104100000948406820F003000749486008464068B5
:1041100040F00200486000BF0348406800F00C0017
:104120000828F9D10CBD0000001002400020024018
:104130002DE9F05F5A4909685A4A1268881805F053
:104140009BF95949086000205649086054490860A5
:104150005648006804F0C4FF06464FF06632544BE0
:1041600004F0AEFC044604F0D5F9504908604E480E
:10417000006804F0B5FF80464FF033324D4B04F039
:104180009FFC04460D464948006804F0A9FF064616
:1041900022462B4604F0F0F9824604F0BBF943496D
:1041A0000860084601684448006804F0C5FF4249B9
:1041B0000860424801684048006804F0BDFF3E497D
:1041C00008603F4801683C48006804F0B5FF3A4980
:1041D00008603C480068012801D10020086036488A
:1041E000006805F00DF9B0F5FA6F02DD3648324986
:1041F00008603148006805F003F910F5FA6F02DA3B
:1042000032482D49086032480068032812D1002046
:104210003049086030490968A1F1800004F0FCFBD6
:10422000064600222D4B04F04BFC044604F072F9C4
:104230002849086026480068042812D1002028492F
:10424000086028490968A1F1C00004F0E5FB0646B2
:104250000022254B04F034FC044604F05BF92049AD
:10426000086000211448006805F064FA06461C48FE
:104270000168304605F060F9044600210B480068EB
:1042800005F058FA064613480168304605F054F91F
:104290000546214604F050FF14490860BDE8F09F30
:1042A0001C01002020010020240100202801002002
:1042B0006666E63F3333D33F2C01002044010020E3
:1042C0003C010020380100200000FA440000FAC43C
:1042D0006C01002004010020640100200000DE3F8A
:1042E00008010020680100200000C43FDC0000201D
:1042F00030B503460C4600211AE0585C2578A842E8
:1043000000D014E0002206E0521CA05C8D185D5D18
:10431000A84200D005E0A05C18B18818185C0028FD
:10432000F2D100BFA05C08B9084630BD00BF491CEF
:10433000585C0028E1D1401EF7E7000010B51D4889
:104340000078401C1B4908701B480078401C1A4923
:1043500008701A480078401C18490870FEF7D0FC15
:1043600017480078401C1649087016480078401C11
:104370001449087014480078401C13490870FEF76F
:1043800041F8FFF761F90C480078022806DB01F0DC
:104390002BF801F0B7FC00200749087007480078A7
:1043A000082806DBFFF7C4FE002004490870044912
:1043B000087010BDC7000020CC000020C8000020FD
:1043C000C9000020CA000020CB00002030B51A48E8
:1043D0000068C822B0FBF2F1B1F1807F01D3012067
:1043E0001DE021F07F40401E4FF0E0225061501749
:1043F0000F22002807DA13071D0E104B00F00F04E0
:10440000241F1D5503E013071C0E0D4B1C5400BF49
:1044100000204FF0E022906107201061002008B1D9
:1044200000BFFEE74FF0E020006920F001004FF0F0
:10443000E021086130BD0000F801002018ED00E027
:1044400000E400E010B51348006840F00100114995
:10445000086008464068104908400E494860084610
:1044600000680E4908400B4908600846006820F4BF
:10447000802008600846406820F4FE0048604FF441
:104480001F008860FFF7E0FD4FF0006004490860FE
:1044900010BD0000001002400000FFF8FFFFF6FE14
:1044A00008ED00E0F0B50C46154600220021068C10
:1044B0004FF6FE773E400684028B018C4FF60C7659
:1044C00032407E1C06EA03162E433243104EB042A1
:1044D0000ED0104EB0420BD0B0F1804F08D00E4E2F
:1044E000B04205D00D4EB04202D00D4EB04206D1C2
:1044F0004FF6FD76314044F00106314305E04FF6BA
:10450000F576314044F00106314302830184F0BD69
:10451000002C01400034014000040040000800402D
:10452000000C0040F0B50C46154600220021002684
:10453000078C4FF6EF7C07EA0C070784028B018C8F
:104540004FF6FF7707EA041640F6FF473A404FF66A
:10455000FF7707EA03373A434FF6FF7707EA052765
:104560003A43114FB8420ED0104FB8420BD0B0F1C1
:10457000804F08D00E4FB84205D00E4FB84202D03F
:104580000D4FB84206D14FF6DF77394046F010079D
:10459000394305E04FF65F77394044F0100739435F
:1045A00002830184F0BD0000002C01400034014072
:1045B0000004004000080040000C0040F0B50C462C
:1045C0001546002200210026078C4FF6FF6C07EAF3
:1045D0000C070784828B018C4FF6FF7707EA0426CD
:1045E0004FF60C773A404FF6FF7707EA03172F4351
:1045F0003A43114FB8420ED0104FB8420BD0B0F131
:10460000804F08D00E4FB84205D00E4FB84202D0AE
:104610000D4FB84206D14FF6FF57394046F4807728
:10462000394305E04FF2FF57394044F4807739436E
:1046300082830184F0BD0000002C01400034014061
:104640000004004000080040000C0040F0B50C469B
:104650001546002200210026078C4EF6FF7C07EA53
:104660000C070784828B018C4FF6FF7707EA04362C
:1046700040F6FF473A404FF6FF7707EA05273A43EF
:104680004FF6FF7707EA03373A43114FB8420ED08F
:10469000104FB8420BD0B0F1804F08D00E4FB84247
:1046A00005D00E4FB84202D00D4FB84206D14DF69C
:1046B000FF77394046F48057394305E047F6FF5706
:1046C000394044F48057394382830184F0BD0000AF
:1046D000002C01400034014000040040000800406C
:1046E000000C004010B50121044800F083FA18B115
:1046F0000121024800F057F910BD0000002C0140D4
:1047000008B501210846FFF7BFFA01210420FFF791
:10471000DBFA0C20ADF8000018208DF80300032010
:104720008DF8020069460248FEF700FA08BD000055
:104730000008014030B587B00025002440F2CF705A
:10474000ADF814000020ADF81000ADF81600ADF87B
:10475000120004A94FF0804000F09EFB6020ADF8ED
:1047600000000120ADF80200ADF806500020ADF8C1
:10477000080069464FF0804000F0B6FA0821C806EC
:1047800000F002FB0120ADF80200ADF80640002069
:10479000ADF8080069464FF0804000F0FFFA0821AC
:1047A000C80600F039FB0121880700F0EDF801216F
:1047B000880700F0FBF807B030BD10B5FFF7A0FF89
:1047C000FFF7B8FF10BD000000B589B0012102203D
:1047D000FFF75AFA01210420FFF776FA01A8FEF745
:1047E00086FAC020ADF8040004208DF807000320ED
:1047F0008DF8060001A92548FEF798F94FF4A0604E
:10480000FEF7DAFF1D208DF8080001208DF8090061
:1048100003208DF80A0001208DF80B0002A8FEF796
:1048200093FF1B4800F0CEF806A800F087FB00209D
:10483000ADF818004FF6FF70ADF81C000020ADF881
:104840001E00ADF81A0006A9114800F025FB0A2346
:104850001A4603210E4800F0A9F903A800F032FA25
:104860000620ADF8140003A9094800F0D5F901218C
:10487000074800F095F801221146054800F02BFA90
:104880000121034800F092F809B000BD0008014082
:104890000004004003490888098821F00101014A09
:1048A000118070471004004000B589B00121042038
:1048B000FFF7EAF901210820FFF706FA01A8FEF741
:1048C00016FAC020ADF8040004208DF8070003207C
:1048D0008DF8060001A92548FEF728F94FF4A060DD
:1048E000FEF76AFF1E208DF8080001208DF80900F0
:1048F00003208DF80A0001208DF80B0002A8FEF7B6
:1049000023FF1B4800F05EF806A800F017FB00200C
:10491000ADF818004FF6FF70ADF81C000020ADF8A0
:104920001E00ADF81A0006A9114800F0B5FA0A23D6
:104930001A4603210E4800F039F903A800F0C2F925
:104940000620ADF8140003A9094800F065F901211B
:10495000074800F025F801221146054800F0BBF990
:104960000121034800F022F809B000BD000C01400D
:104970000008004003490888098821F00101014A24
:10498000118070471008004021B1028842F0800277
:10499000028004E002884FF67F731A40028070475D
:1049A000CA4302827047CA430282704721B102881B
:1049B00042F00102028004E002884FF6FE731A40C2
:1049C0000280704710B504466848844208D101212E
:1049D000C014FFF789F90021E014FFF785F9C4E05E
:1049E000B4F1804F08D101210846FFF75DF900219D
:1049F0000120FFF759F9B8E05D48844208D1012150
:104A00000220FFF751F900210220FFF74DF9ACE039
:104A10005848844208D101210420FFF745F90021BC
:104A20000420FFF741F9A0E05348844208D1012156
:104A30000820FFF739F900210820FFF735F994E045
:104A40004E48844208D101211020FFF72DF90021A2
:104A50001020FFF729F988E04948844208D1012154
:104A60002020FFF721F900212020FFF71DF97CE02D
:104A70004448844208D101214014FFF735F9002150
:104A80006014FFF731F970E03F48844209D10121F9
:104A9000C804FFF729F900214FF40020FFF724F99B
:104AA00063E03A48844209D101210805FFF71CF967
:104AB00000214FF48010FFF717F956E03448844284
:104AC00009D101214805FFF70FF900214FF400102B
:104AD000FFF70AF949E02F48844208D1012140201C
:104AE000FFF7E2F800214020FFF7DEF83DE02A481A
:104AF000844208D101218020FFF7D6F800218020D0
:104B0000FFF7D2F831E02548844208D10121801511
:104B1000FFF7CAF80021A015FFF7C6F825E02048E6
:104B2000844209D101210804FFF7DEF800214FF487
:104B30008030FFF7D9F818E01A48844209D10121E2
:104B40004804FFF7D1F800214FF40030FFF7CCF80C
:104B50000BE01548844208D101218804FFF7C4F80E
:104B600000214FF48020FFF7BFF810BD002C01405A
:104B70000004004000080040000C0040001000400D
:104B80000014004000340140004C0140005001403E
:104B90000054014000180040001C0040002000406C
:104BA000004001400044014000480140F0B50C467F
:104BB00015461E460021002200230189028B038C2A
:104BC0004FF6F877394021434FF6FC473A4040F220
:104BD00001173A434FF6DD773B404FF6FF7707EA80
:104BE00006172F433B43018102830384F0BD014636
:104BF000888C704730B50246002000230024158AB7
:104C000005EA0103958905EA010413B10CB10120FD
:104C100000E0002030BD000070B505460C46244879
:104C200085420ED0234885420BD0B5F1804F08D085
:104C30002148854205D02148854202D0204885423E
:104C400000D100E000BF208850B92389A288618884
:104C50002846FFF727FCE188284600F0F1F825E018
:104C6000208804280AD12389A28861882846FFF772
:104C700059FCE188284600F0ECF817E02088082865
:104C80000AD12389A28861882846FFF797FCE1882A
:104C9000284600F0EBF809E02389A28861882846BD
:104CA000FFF7D4FCE188284600F0E9F870BD000069
:104CB000002C014000340140000400400008004086
:104CC000000C0040002101804180012181800021F1
:104CD000C180018170471AB183890B43838102E04F
:104CE00083898B438381704770B5002400220023A1
:104CF000058C4FF6FF6635400584028C8388848BD3
:104D00004FF68F752C404FF6FC752C400D882C43C8
:104D10004FF6FF552A400D894FF6FF7606EA052526
:104D20002A434D8806EA05252A43154DA84202D09C
:104D3000144DA8421DD14FF2FF752A404D894FF600
:104D4000FF7606EA05252A434FF6FF352A408D886F
:104D500006EA05252A434EF6FF752B404DF6FF75F2
:104D60002B408D8906EA05152B43CD8906EA0515EA
:104D70002B4383808483CD888587028470BD0000A7
:104D8000002C0140003401400A460021818B4FF67F
:104D9000F7731940114381837047000070B50022FA
:104DA00000230024058C4EF6FF7635400584038CE5
:104DB0008488828B48F6FF752A404FF6FF452A40CB
:104DC0000D884FF6FF7606EA05252A434DF6FF7556
:104DD0002B400D8906EA05352B434D8806EA05353B
:104DE0002B430B4DA84202D00A4DA84208D14BF6E6
:104DF000FF752C408D894FF6FF7606EA85152C430A
:104E000084808283CD88A0F84050038470BD000068
:104E1000002C0140003401400A460021818B4FF2F2
:104E2000FF7319404FF6FF7303EA0223194381838E
:104E3000704781877047A0F84010704781847047A1
:104E4000028B4FF6F3731A400283028B0A430283EC
:104E50007047028B4FF2FF331A400283028B4FF6EA
:104E6000FF7303EA01231A4302837047828B4FF6D4
:104E7000F3731A408283828B0A4382837047828B4A
:104E80004FF2FF331A408283828B4FF6FF7303EA9F
:104E900001231A4382837047002202881D4B9842E7
:104EA0000ED01D4B98420BD0B0F1804F08D01B4B59
:104EB000984205D01A4B984202D01A4B984204D11E
:104EC0004FF68F731A404B881A43174B984207D0FE
:104ED000164B984204D04FF6FF431A40CB881A4332
:104EE00002808B8883850B8803850A4B98420BD000
:104EF000094B984208D00E4B984205D00D4B984272
:104F000002D00D4B984201D10B7A03860123838294
:104F100070470000002C01400034014000040040B4
:104F200000080040000C0040001000400014004049
:104F30000040014000440140004801404FF6FF712D
:104F4000818000210180C180418001727047000092
:104F50007FB504460D460121C802FEF7B5FE41F2B9
:104F60008830ADF8080041F61F40ADF8040001207C
:104F7000ADF80A000020ADF8060001A90B48FFF7C4
:104F80008BFF012241210948FFF7A5FE19208DF86A
:104F9000000003208DF8010000208DF802000120A0
:104FA0008DF803006846FEF7CFFB7FBD002C014063
:104FB00070B505462C4603E0207800F0F3F8641C39
:104FC00020780028F8D170BD00B585B0012144F2E9
:104FD0000400FEF779FE4FF40070ADF810001820C1
:104FE0008DF8130003208DF8120004A91348FDF773
:104FF0009DFD4FF48060ADF8100004208DF8130083
:1050000004A90E48FDF792FD4FF4E1300090002016
:10501000ADF80400ADF80600ADF80800ADF80C00DE
:105020000C20ADF80A006946054800F021F901217D
:10503000034800F0DFF805B000BD000000080140A3
:105040000038014010B504462146054800F081F9BA
:1050500000BF4021024800F0D9F80128F9D110BD65
:105060000038014000B585B001218804FEF70CFE30
:1050700001210820FEF728FE4FF48060ADF81000F3
:1050800018208DF8130003208DF8120004A917488A
:10509000FDF74CFD4FF40060ADF8100004208DF8D2
:1050A000130004A91148FDF741FDFEF738FB4FF44A
:1050B000165000900020ADF80400ADF80600ADF8E1
:1050C0000800ADF80C000C20ADF80A00694608484D
:1050D00000F0CEF8012240F22551054800F0A3F877
:1050E0000121034800F086F805B000BD000C014026
:1050F0000048004010B500240821244800F086F83C
:1051000030B10821214800F05DF8204800F01CF97A
:1051100020211E4800F07AF8002836D040F22551B0
:105120001A4800F058F81948001D0088C4B2242C11
:1051300005D101201649087000201649086014485E
:105140000078012803D114481249096844541048D2
:10515000007801280AD1232C08D1104908700020BA
:105160000B4908700B4800680D4908600948006841
:10517000401C0849086008460068502805DB0020EC
:105180000860034908700549087010BD00480040D8
:10519000DC010020D80100202C0200206C0000203F
:1051A000E001002010B504462146054800F0D1F882
:1051B00000BF4021024800F029F80128F9D110BDB4
:1051C0000048004001F40072B2F5007F00D100BF3A
:1051D000CA430280704710B50022002340F66A14CB
:1051E000A14200D100BF0A1201249440A3B2DC43C3
:1051F000048010BD21B1828942F40052828104E012
:1052000082894DF6FF731A40828170470246002062
:10521000B1F5007F00D100BF13880B400BB1012016
:1052200000E000207047F0B503460024002600256A
:10523000002040F66A17B94200D100BF1846C1F3FA
:10524000421401F01F06012707FA06F5012C01D1CF
:105250000C3004E0022C01D1103000E014301AB1FF
:1052600007682F43076002E00768AF430760F0BD9F
:105270002DE9F04786B005460E460024A24600BF41
:10528000A1460027B08900B100BF2F462C8A4CF6FA
:10529000FF700440F08804432C82AC894EF6F31072
:1052A0000440B08831890843718908430443AC81C4
:1052B000AC8A4FF6FF400440B0890443AC8201A899
:1052C000FEF722FD1F48874202D1DDF810A001E061
:1052D000DDF80CA0A88900F4004040B10AEBCA0038
:1052E00000EB0A1031684900B0FBF1F807E00AEB67
:1052F000CA0000EB0A1031688900B0FBF1F86420A5
:10530000B8FBF0F004012009642101FB1089A88991
:1053100000F4004040B1322000EBC900B0FBF1F0D6
:1053200000F00700044308E0322000EB091064217C
:10533000B0FBF1F000F00F0004432C8106B0BDE893
:10534000F08700000038014001468888C0F308005B
:105350007047C1F308028280704700001FB5012129
:105360001F48FDF76FFC01210920FEF7ADFC01206D
:10537000ADF80C0010208DF80F0003208DF80E0002
:1053800003A91848FDF7D2FB0220ADF80C00282035
:105390008DF80F0003A91348FDF7C8FB012108464B
:1053A000FDF7A4FB0220019000208DF808000820E2
:1053B0008DF8090001208DF80A0001A8FDF74CFBCB
:1053C00007208DF8000003208DF8010001208DF8E2
:1053D00002008DF803006846FEF7B6F91FBD000015
:1053E00000023000000C014010B501210548FDF716
:1053F0007CFC0C2000F02EFD01210248FDF773FC1F
:1054000010BD0000000C014000BFFEE7490050EA5B
:10541000C12018BF04204A0D18BF40F0010040F21F
:10542000FF72B2EB515F08BF40F00200012808BFD5
:10543000052070472DE9F0414F1E00EBC7010446DF
:10544000D1E9000115461E4637F006020DD02A4666
:10545000334603F035FB7F1E04EBC703D3E900237B
:1054600003F08AF837F00602F1D1022F25D0042F7D
:1054700013D0062F18BFBDE8F0812A46334603F04B
:105480001FFBD4E90A2303F077F82A46334603F0DA
:1054900017FBD4E9082303F06FF82A46334603F0DC
:1054A0000FFBD4E9062303F067F82A46334603F0DE
:1054B00007FBD4E9042303F05FF82A46334603F0E0
:1054C000FFFAD4E9022303F057F82A46334603F0E3
:1054D000F7FAD4E90023BDE8F04103F04DB801220A
:1054E00004F0D4B903F048B8002213461046114620
:1054F00003F0FEB840F2013200204FF0E04104F02A
:10550000C5B90000024A0020110704F0BFB900002D
:1055100001FDFFFF10B50446D1E9000100F002F8DB
:10552000206010BDF8B504460D466A4601F07AFACF
:1055300000987E30009000281EDC00221346204692
:10554000294603F02DFA17D0002140F608004FF04D
:10555000000006462046294602F0DCFF044640F6DD
:10556000080006EA00014FF0000034F0004004BFDC
:105570000220FBF7DFF829E00098FF2828DB002154
:1055800008464FF0000000F4400600221346204673
:10559000294603F093FB8CBF002501250220FBF771
:1055A000C9F84FF0FF4446B1002D0CBF4FF4000086
:1055B0004FF48000B04218BF084C042108464FF059
:1055C0000000002D04BF84F00040F8BD2046F8BD67
:1055D00020462946BDE8F84002F09CBFFFFF7F7FD0
:1055E00010B504460A46D4E90003194601F045FE09
:1055F000C4E9000110BD30380A2801D201207047EB
:10560000002070472DE9FE4F06460F4600256846EC
:1056100001F034FA002442E056F8240057F8241030
:10562000A0EB010ABAF1000F01DB514601E0CAF11B
:105630000001084603F020FF83464FF08F4103F03E
:10564000E9FD80465DF82400002103F0A5FE16D098
:105650005DF82410404603F0DDFD82464FF07E5198
:1056600004F068F8814629F0004A0F48416A504624
:1056700004F02EF812D20120A04005430EE00A48A3
:10568000C169404603F024FF05D30748016A40463C
:1056900004F01EF802D20120A0400543641C032C34
:1056A000BADB2846BDE8FE8F4C9900082DE9F04D85
:1056B0008D4F21F0004A86B005460C46BA452ADBDC
:1056C000AAEB070028430AD08848824501DC1AD19A
:1056D000CDB106B02846BDE8F04DFFF700BF844AC3
:1056E000844B284603F0ECF907460E46824A834B6A
:1056F0002846214603F0E4F906B03A463346BDE8B1
:10570000F04D02F039BF0120FBF714F806B0BDE8F8
:10571000F04DFFF7E9BE7A48824542DABAF1795F87
:105720000BDA2846FFF772FE042808BFFFF7EAFEEF
:10573000284606B02146BDE8F08D2A460B461046A5
:1057400003F0BEF9834602466E480E460B4606211C
:105750007844FFF76FFE5A46334603F0B1F98046AE
:1057600069488A465A46334604217844FFF762FE68
:105770005A46334603F0A4F900223B4602F0FCFEF1
:1057800002460B464046514602F0B2FF2A462346E7
:1057900003F096F906B02A462346BDE8F04D02F024
:1057A000EBBE284624F0004100223D463B4603F074
:1057B000BBFA4FF0FF3204F069F806460246534840
:1057C0000F460B4606217844FFF734FE32463B462F
:1057D00003F076F9CDE900014D4832463B460421FD
:1057E0007844FFF727FE32463B4603F069F9002272
:1057F0002B4602F0C1FE834602913046394602F044
:1058000037FE804643480D46504517DCDDE9000170
:105810005A46029B02F06CFF42462B4603F050F9B9
:1058200042462B4602F0A8FE012204F02FF8304A2F
:10583000304B03F06BFB304A304B4CE04FF0000A2A
:1058400052460B46404602F097FECDE90310524601
:105850002B461046194603F033F932463B4603F017
:1058600063FADDE9033202F043FF06460F46DDE945
:1058700000015A46029B02F03BFF83460091012241
:105880003046394604F002F8194A1A4B03F04CFA34
:1058900006460F4601224046294603F0F7FF5A46C6
:1058A000009B03F00DF932463B4603F02FFB064602
:1058B0000F4601225046294603F0E8FF0E4DDFF85F
:1058C00058802A46434603F02FFA32463B4603F0FF
:1058D0002BFA2A46434603F027FA002CD8BF81F062
:1058E000004106B0BDE8F08D0000F03F0000F07F01
:1058F000075C143326A6913C182D4454FB21F93F34
:105900000000E03F3C4E0000524E0000C64D00003B
:10591000DC4D00003333EF3FFB21E93F2DE9F84F29
:1059200004460D4621F0004000917349814211DC8C
:105930007249884201DC06D12CB120462946BDE8D7
:10594000F84FFFF7CCBD6E48002DCCBF6D496E49B6
:10595000BDE8F88F6D49814211DD6D498142D8BFA4
:105960004FF0FF366DDD20462946FFF74FFD042836
:1059700008BFFFF7C7FD20462946BDE8F88F6549F7
:10598000654F25F00045814233DD6449814219DDD0
:10599000002632464FF080432046294602F0ECFDB7
:1059A00080468A4601222046294603F06FFF0022E6
:1059B0003B4603F0ABFA4246534602F099FE0446DA
:1059C0000D463EE001260022BA463B4620462946C7
:1059D00002F0D2FD80460F4600225346204629465B
:1059E00003F094FA42463B4602F082FE04460D461E
:1059F00027E04B4981421BDDDFF828A10226002267
:105A000053462046294603F05BF800223B4602F04D
:105A1000B3FD80460F46002253462046294603F038
:105A200075FA42463B4602F063FE04460D4608E026
:105A3000032622462B4600203B4902F059FE04462D
:105A40000D4622462B461046194603F039F88B4680
:105A5000824602460B4603F033F8074602463348B7
:105A600088460B4606217844FFF7E4FC52465B4625
:105A700003F026F882462E488B463A4643460521D7
:105A80007844FFF7D7FC3A46434603F019F802463C
:105A90000B46002E504659460CDA02F06DFD2246A8
:105AA0002B4603F00DF801B022462B46BDE8F04F1F
:105AB00003F03AB902F060FD22462B4603F000F8ED
:105AC0001C4A7A4402EBC603D3E9002303F01EFA12
:105AD00022462B4603F01AFA174A7A4402EBC60311
